:100000000C942A000C9447000C9447000C94470071
:100010000C9447000C9447000C9447000C94470044
:100020000C9447000C9447000C9447000C94470034
:100030000C9447000C9447000C9447000C94470024
:100040000C9447000C9447000C9447000C94470014
:100050000C94470011241FBECFE5D8E0DEBFCDBF12
:1000600011E0A0E6B0E0E2ECFDE202C005900D92E6
:10007000AE37B107D9F711E0AEE7B1E001C01D928C
:10008000A338B107E1F70E945C160C94DF160C94BC
:100090000000EF92FF920F931F937B018C0120E0F1
:1000A00030E040E05FE40E94490388238CF0C801FF
:1000B000B70120E030E040E05FE40E94C1010E940F
:1000C000A9039B01AC01205030404040504806C07D
:1000D000C801B7010E94A9039B01AC01B901CA0183
:1000E0001F910F91FF90EF900895A0E0B0E0EBE733
:1000F000F0E00C94A816DC012B01FA019C919230DF
:1001000008F439C1EB018881823008F433C194309E
:1001100069F4843009F02FC111969C91119789815F
:10012000981709F428C1A0E6B0E025C1843009F48D
:1001300021C18230A9F4923009F01DC19A01AD01AC
:1001400088E0EA010990AE01E90109929E0181501F
:10015000C1F7E201898111969C918923818308C1AD
:10016000923009F407C112962D903C901397EB0141
:100170008A819B811496AD90BD90CD90DC901797AD
:10018000EC80FD800E811F819101281B390BB90184
:1001900037FF04C066277727621B730B6032710537
:1001A0000CF061C0121613066CF537014801062EDB
:1001B00004C096948794779467940A94D2F721E0C8
:1001C00030E040E050E004C0220F331F441F551FB1
:1001D0006A95D2F721503040404050402E213F21B7
:1001E00040235123211531054105510521F021E01E
:1001F00030E040E050E079018A01E628F72808293C
:1002000019293CC0232BD1F1260E371E350146019A
:10021000062E04C096948794779467940A94D2F734
:1002200021E030E040E050E004C0220F331F441FC3
:10023000551F6A95D2F721503040404050402A2146
:100240003B214C215D21211531054105510521F04E
:1002500021E030E040E050E059016A01A628B728CB
:10026000C828D9280BC0821593052CF01C01AA249C
:10027000BB24650103C0EE24FF24870111969C91E5
:10028000D20111968C91981709F445C0992339F041
:10029000A80197012A193B094C095D0906C0A6016E
:1002A00095012E193F09400B510B57FD08C01182D3
:1002B0003382228224833583468357831DC081E0A5
:1002C00081833382228288279927DC01821B930B4A
:1002D000A40BB50B84839583A683B7830DC0220F2F
:1002E000331F441F551F24833583468357838281E0
:1002F000938101979383828324813581468157813D
:10030000DA01C9010197A109B1098F5F9F4FAF4F72
:10031000BF4328F30BC0918333822282EA0CFB1C7B
:100320000C1D1D1DE482F5820683178383E0808304
:10033000248135814681578157FF1AC0C901AA27F8
:1003400097FDA095BA2F81709070A070B0705695EF
:10035000479537952795822B932BA42BB52B848318
:100360009583A683B7838281938101969383828349
:10037000DF0101C0D201CD01CDB7DEB7E2E10C94BF
:10038000C416A0E2B0E0E7ECF1E00C94B416698387
:100390007A838B839C832D833E834F835887E9E048
:1003A000EE2EF12CEC0EFD1ECE010196B7010E943F
:1003B0009A058E010F5E1F4FCE010596B8010E946F
:1003C0009A058A8991E089278A8BC701B801AE0115
:1003D000475E5F4F0E9475000E94C504A096E6E04C
:1003E0000C94D016A0E2B0E0E8EFF1E00C94B41663
:1003F00069837A838B839C832D833E834F835887C5
:10040000F9E0EF2EF12CEC0EFD1ECE010196B701A6
:100410000E949A058E010F5E1F4FCE010596B8010E
:100420000E949A05C701B801AE01475E5F4F0E9466
:1004300075000E94C504A096E6E00C94D016A0E2D8
:10044000B0E0E5E2F2E00C94A81669837A838B832E
:100450009C832D833E834F835887CE010196BE0136
:10046000675F7F4F0E949A05CE010596BE016F5EC1
:100470007F4F0E949A059985923088F08989823051
:10048000C8F0943019F4823051F404C0843029F457
:10049000923081F480E690E0C6C0923049F420E0CA
:1004A0009A858A89981321E02A87CE010996BBC0D4
:1004B000823049F420E09A858A89981321E02A8BBA
:1004C000CE014196B0C02D843E844F8458886D88FB
:1004D0007E888F88988CEE24FF248701AA24BB2471
:1004E000650140E050E060E070E0E0E0F0E0C10174
:1004F00081709070892BE9F0E60CF71C081D191D1E
:100500009A01AB012A0D3B1D4C1D5D1D80E090E062
:10051000A0E0B0E0E614F7040805190520F481E036
:1005200090E0A0E0B0E0BA01A901480F591F6A1F8E
:100530007B1FAA0CBB1CCC1CDD1C97FE08C081E0F5
:1005400090E0A0E0B0E0A82AB92ACA2ADB2A3196B6
:10055000E032F10549F0660C771C881C991C569412
:10056000479437942794C3CFFA85EA892B893C892D
:100570008B859C85280F391F2E5F3F4F17C0CA01FE
:1005800081709070892B61F016950795F794E79428
:1005900080E090E0A0E0B0E8E82AF92A0A2B1B2BC3
:1005A00076956795579547952F5F3F4F77FDE7CF36
:1005B0000CC0440F551F661F771F17FD4160EE0CDE
:1005C000FF1C001F111F21503040403090E05907A0
:1005D00090E0690790E4790760F32B8F3C8FDB0193
:1005E000CA018F779070A070B07080349105A1051A
:1005F000B10561F447FD0AC0E114F10401051105DC
:1006000029F0405C5F4F6F4F7F4F40781A8EFE1786
:1006100011F081E08A8F4D8F5E8F6F8F78A383E01A
:10062000898FCE0149960E94C504A096E2E10C9400
:10063000C416A8E1B0E0EFE1F3E00C94B4166983CE
:100640007A838B839C832D833E834F83588789E0F5
:10065000E82EF12CEC0EFD1ECE010196B7010E9492
:100660009A058E010F5E1F4FCE010596B8010E94BC
:100670009A058985823040F08989823028F0C70147
:10068000B8010E94120601C08FEF6896E6E00C9454
:10069000D016A8E1B0E0EFE4F3E00C94B41669835F
:1006A0007A838B839C832D833E834F83588789E095
:1006B000E82EF12CEC0EFD1ECE010196B7010E9432
:1006C0009A058E010F5E1F4FCE010596B8010E945C
:1006D0009A058985823040F08989823028F0C701E7
:1006E000B8010E94120601C08FEF6896E6E00C94F4
:1006F000D016A8E1B0E0EFE7F3E00C94B4166983FC
:100700007A838B839C832D833E834F83588789E034
:10071000E82EF12CEC0EFD1ECE010196B7010E94D1
:100720009A058E010F5E1F4FCE010596B8010E94FB
:100730009A058985823040F08989823028F0C70186
:10074000B8010E94120601C081E06896E6E00C94B0
:10075000D016ACE0B0E0EFEAF3E00C94B816698391
:100760007A838B839C83CE010196BE016B5F7F4FA2
:100770000E949A058D81823061F1823050F184307F
:1007800021F48E81882351F12EC02F81388537FDC9
:1007900020C06E812F3131051CF06623F9F023C093
:1007A0008EE190E0821B930B29853A854B855C8511
:1007B00004C056954795379527958A95D2F76623B5
:1007C000B1F050954095309521953F4F4F4F5F4F79
:1007D0000EC020E030E040E050E009C02FEF3FEFD6
:1007E0004FEF5FE704C020E030E040E050E8B9019F
:1007F000CA012C96E2E00C94D416A8E0B0E0E3E045
:10080000F4E00C94B0167B018C0161157105810533
:10081000910519F482E0898360C083E089838EE1C9
:10082000C82ED12CDC82CB82ED82FE820F8318870A
:10083000C801B7010E947604FC013197F7FF3BC065
:10084000222733272E1B3F0B57016801022E04C0BD
:10085000D694C794B794A7940A94D2F740E050E096
:1008600060E070E081E090E0A0E0B0E004C0880FBC
:10087000991FAA1FBB1F2A95D2F70197A109B10999
:100880008E219F21A023B1230097A105B10521F05E
:1008900041E050E060E070E04A295B296C297D2945
:1008A0004D835E836F8378878EE190E08E1B9F0B74
:1008B0009C838B8312C0309781F00E2E04C0EE0C07
:1008C000FF1C001F111F0A94D2F7ED82FE820F83D6
:1008D0001887CE1ADF0ADC82CB821A82CE010196FB
:1008E0000E94C5042896EAE00C94CC16EF92FF9281
:1008F0000F931F937B018C0180E0E81680E0F806DF
:1009000081E0080780E0180788F48FEFE816F1040B
:100910000105110531F028F088E090E0A0E0B0E09A
:1009200017C080E090E0A0E0B0E012C080E0E816E0
:1009300080E0F80680E0080781E0180728F088E1E9
:1009400090E0A0E0B0E004C080E190E0A0E0B0E082
:1009500020E230E040E050E0281B390B4A0B5B0BF3
:1009600004C016950795F794E7948A95D2F7F70196
:10097000E859FF4F8081281B310941095109C901FC
:100980001F910F91FF90EF900895DF92EF92FF92E9
:100990000F931F93FC01E480F58006811781D180BD
:1009A0008081823048F480E090E0A0E1B0E0E82A65
:1009B000F92A0A2B1B2BA5C0843009F49FC0823072
:1009C00021F4EE24FF24870105C0E114F1040105A0
:1009D000110519F4E0E0F0E096C0628173819FEFA9
:1009E000623879070CF05BC022E83FEF261B370B1B
:1009F0002A3131052CF020E030E040E050E02AC000
:100A0000B801A701022E04C07695679557954795C2
:100A10000A94D2F781E090E0A0E0B0E004C0880F33
:100A2000991FAA1FBB1F2A95D2F70197A109B109E7
:100A30008E219F21A023B1230097A105B10521F0AC
:100A400081E090E0A0E0B0E09A01AB01282B392BC7
:100A50004A2B5B2BDA01C9018F779070A070B070C0
:100A600080349105A105B10539F427FF09C0205C48
:100A70003F4F4F4F5F4F04C0215C3F4F4F4F5F4F81
:100A8000E0E0F0E02030A0E03A07A0E04A07A0E470
:100A90005A0710F0E1E0F0E079018A0127C06038E0
:100AA000710564F5FB01E158FF4FD801C7018F774D
:100AB0009070A070B07080349105A105B10539F433
:100AC000E7FE0DC080E490E0A0E0B0E004C08FE35A
:100AD00090E0A0E0B0E0E80EF91E0A1F1B1F17FF10
:100AE00005C016950795F794E794319687E016951B
:100AF0000795F794E7948A95D1F705C0EE24FF2473
:100B00008701EFEFF0E06E2F679566276795902FCE
:100B10009F77D794DD24D7948E2F8695492F462B27
:100B2000582F5D29B701CA011F910F91FF90EF90D7
:100B3000DF900895FC01DB01408151812281622F09
:100B40006F7770E0221F2227221F9381892F880F41
:100B5000822B282F30E0991F9927991F11969C937B
:100B6000119721153105A9F541155105610571054B
:100B700011F482E037C082E89FEF13969C938E9326
:100B800012979A01AB0167E0220F331F441F551FD4
:100B90006A95D1F783E08C930DC0220F331F441F59
:100BA000551F12968D919C911397019713969C93C4
:100BB0008E931297203080E0380780E0480780E469
:100BC000580758F314962D933D934D935C931797C4
:100BD00008952F3F310579F44115510561057105DF
:100BE00019F484E08C93089564FF03C081E08C9332
:100BF00012C01C9210C02F57304013963C932E9376
:100C0000129783E08C9387E0440F551F661F771F70
:100C10008A95D1F7706414964D935D936D937C9390
:100C2000179708951F93DC01FB019C91923008F403
:100C300047C08081823008F443C0943051F411964B
:100C40001C91843099F58181682F70E0611B7109D6
:100C50003FC0843021F0923031F48230B9F181818B
:100C6000882389F12DC011961C9111978230F1F0E3
:100C700081811817D9F412962D913C911397828196
:100C800093818217930794F028173907BCF01496C4
:100C90008D919D910D90BC91A02D2481358146812F
:100CA0005781281739074A075B0718F4112341F0C9
:100CB0000AC082179307A407B50740F4112319F05F
:100CC00061E070E005C06FEF7FEF02C060E070E0B0
:100CD000CB011F910895DF93CF93CDB7DEB72D974A
:100CE0000FB6F894DEBF0FBECDBF89836A834B83F6
:100CF0008981282F30E03D872C878C859D85813028
:100D0000910509F4B8C02C853D85223031052CF4BD
:100D10008C859D85009771F090C22C853D85223091
:100D2000310509F449C18C859D858330910509F40D
:100D3000E4C183C28A81282F30E03B872A878A85D5
:100D40009B858330910509F451C02A853B85243069
:100D500031057CF48A859B858130910571F12A8566
:100D60003B8522303105ACF58A859B850097D1F013
:100D700064C22A853B852530310509F452C08A8535
:100D80009B85853091050CF43FC02A853B85263034
:100D9000310509F454C08A859B858730910509F493
:100DA0005DC04BC2E0E3F0E08B818170982F9170C1
:100DB00082858E7F892B828740C2E0E3F0E08B81C1
:100DC00081708170982F990F82858D7F892B828702
:100DD00034C2E0E3F0E08B8181708170982F990F2D
:100DE000990F82858B7F892B828727C2E0E3F0E011
:100DF0008B8181708170982F990F990F990F82853F
:100E0000877F892B828719C2E0E3F0E08B818170B4
:100E10008170982F9295907F82858F7E892B828713
:100E20000CC2E0E3F0E08B8181708170982F929585
:100E3000990F907E82858F7D892B8287FEC1E0E3AA
:100E4000F0E08B8181708170982F9295990F990FA6
:100E5000907C82858F7B892B8287EFC1E0E3F0E075
:100E60008B818170982F97959927979582858F7799
:100E7000892B8287E2C18A81282F30E03987288731
:100E8000888599858330910509F451C02885398575
:100E9000243031057CF4888599858130910571F184
:100EA0002885398522303105ACF5888599850097EC
:100EB000D1F0C3C1288539852530310509F452C0E8
:100EC00088859985853091050CF43FC02885398542
:100ED0002630310509F454C08885998587309105FD
:100EE00009F45DC0AAC1E0E3F0E08B818170982F26
:100EF000917087818E7F892B87839FC1E0E3F0E02B
:100F00008B8181708170982F990F87818D7F892BBC
:100F1000878393C1E0E3F0E08B8181708170982F2B
:100F2000990F990F87818B7F892B878386C1E0E397
:100F3000F0E08B8181708170982F990F990F990F34
:100F40008781877F892B878378C1E0E3F0E08B81FD
:100F500081708170982F9295907F87818F7E892BE9
:100F600087836BC1E0E3F0E08B8181708170982F03
:100F70009295990F907E87818F7D892B87835DC1A4
:100F8000E0E3F0E08B8181708170982F9295990F4A
:100F9000990F907C87818F7B892B87834EC1E0E3FB
:100FA000F0E08B818170982F97959927979587818D
:100FB0008F77892B878341C18A81282F30E03F8337
:100FC0002E838E819F818330910509F451C02E813B
:100FD0003F81243031057CF48E819F8181309105E1
:100FE00071F12E813F8122303105ACF58E819F81D8
:100FF0000097D1F022C12E813F812530310509F4BF
:1010000052C08E819F81853091050CF43FC02E81A6
:101010003F812630310509F454C08E819F8187308D
:10102000910509F45DC009C1E0E3F0E08B818170B6
:10103000982F917084818E7F892B8483FEC0E0E39A
:10104000F0E08B8181708170982F990F84818D7F62
:10105000892B8483F2C0E0E3F0E08B8181708170A2
:10106000982F990F990F84818B7F892B8483E5C0FA
:10107000E0E3F0E08B8181708170982F990F990FD8
:10108000990F8481877F892B8483D7C0E0E3F0E0C8
:101090008B8181708170982F9295907F84818F7E53
:1010A000892B8483CAC0E0E3F0E08B81817081707A
:1010B000982F9295990F907E84818F7D892B8483C0
:1010C000BCC0E0E3F0E08B8181708170982F929535
:1010D000990F990F907C84818F7B892B8483ADC07D
:1010E000E0E3F0E08B818170982F97959927979591
:1010F00084818F77892B8483A0C08A81282F30E058
:101100003D832C838C819D818330910509F451C0EE
:101110002C813D81243031057CF48C819D8181308E
:10112000910571F12C813D8122303105ACF58C8126
:101130009D810097D1F081C02C813D812530310502
:1011400009F452C08C819D81853091050CF43FC01B
:101150002C813D812630310509F454C08C819D815C
:101160008730910509F45DC068C0E0E3F0E08B8151
:101170008170982F917081818E7F892B81835DC0D2
:10118000E0E3F0E08B8181708170982F990F81816D
:101190008D7F892B818351C0E0E3F0E08B818170EA
:1011A0008170982F990F990F81818B7F892B818373
:1011B00044C0E0E3F0E08B8181708170982F990F3B
:1011C000990F990F8181877F892B818336C0E0E356
:1011D000F0E08B8181708170982F9295907F818152
:1011E0008F7E892B818329C0E0E3F0E08B818170C1
:1011F0008170982F9295990F907E81818F7D892B98
:1012000081831BC0E0E3F0E08B8181708170982FB7
:101210009295990F990F907C81818F7B892B818387
:101220000CC0E0E3F0E08B818170982F97959927AF
:10123000979581818F77892B81832D960FB6F894AE
:10124000DEBF0FBECDBFCF91DF910895DF93CF9367
:10125000CDB7DEB72D970FB6F894DEBF0FBECDBF6A
:1012600089836A834B838981282F30E03D872C87CF
:101270008C859D858130910509F4B8C02C853D850C
:10128000223031052CF48C859D85009771F090C239
:101290002C853D852230310509F449C18C859D8519
:1012A0008330910509F4E4C183C28A81282F30E09C
:1012B0003B872A878A859B858330910509F451C035
:1012C0002A853B85243031057CF48A859B858130D5
:1012D000910571F12A853B8522303105ACF58A856F
:1012E0009B850097D1F064C22A853B852530310566
:1012F00009F452C08A859B85853091050CF43FC066
:101300002A853B852630310509F454C08A859B85A2
:101310008730910509F45DC04BC2E0E3F0E08B81BA
:101320008170982F917083858E7F892B838740C22F
:10133000E0E3F0E08B8181708170982F990F8385B5
:101340008D7F892B838734C2E0E3F0E08B8181704D
:101350008170982F990F990F83858B7F892B8387B5
:1013600027C2E0E3F0E08B8181708170982F990FA4
:10137000990F990F8385877F892B838719C2E0E3B3
:10138000F0E08B8181708170982F9295907F83859A
:101390008F7E892B83870CC2E0E3F0E08B81817024
:1013A0008170982F9295990F907E83858F7D892BE0
:1013B0008387FEC1E0E3F0E08B8181708170982F1C
:1013C0009295990F990F907C83858F7B892B8387CA
:1013D000EFC1E0E3F0E08B818170982F979599271A
:1013E000979583858F77892B8387E2C18A81282F00
:1013F00030E039872887888599858330910509F4FD
:1014000051C028853985243031057CF4888599853B
:101410008130910571F12885398522303105ACF58F
:10142000888599850097D1F0C3C1288539852530F5
:10143000310509F452C088859985853091050CF4F1
:101440003FC0288539852630310509F454C0888588
:1014500099858730910509F45DC0AAC1E0E3F0E009
:101460008B818170982F917080858E7F892B8087EA
:101470009FC1E0E3F0E08B8181708170982F990F1C
:1014800080858D7F892B808793C1E0E3F0E08B819D
:1014900081708170982F990F990F80858B7F892B90
:1014A000808786C1E0E3F0E08B8181708170982FA6
:1014B000990F990F990F8085877F892B808778C135
:1014C000E0E3F0E08B8181708170982F9295907F9E
:1014D00080858F7E892B80876BC1E0E3F0E08B8174
:1014E00081708170982F9295990F907E80858F7D65
:1014F000892B80875DC1E0E3F0E08B818170817092
:10150000982F9295990F990F907C80858F7B892BCE
:1015100080874EC1E0E3F0E08B818170982F979532
:101520009927979580858F77892B808741C18A81FC
:10153000282F30E03F832E838E819F818330910559
:1015400009F451C02E813F81243031057CF48E8115
:101550009F818130910571F12E813F8122303105CB
:10156000ACF58E819F810097D1F022C12E813F8101
:101570002530310509F452C08E819F818530910557
:101580000CF43FC02E813F812630310509F454C050
:101590008E819F818730910509F45DC009C1E0E328
:1015A000F0E08B818170982F917085818E7F892BDF
:1015B0008583FEC0E0E3F0E08B8181708170982F1D
:1015C000990F85818D7F892B8583F2C0E0E3F0E060
:1015D0008B8181708170982F990F990F85818B7FF6
:1015E000892B8583E5C0E0E3F0E08B818170817019
:1015F000982F990F990F990F8581877F892B858364
:10160000D7C0E0E3F0E08B8181708170982F9295D4
:10161000907F85818F7E892B8583CAC0E0E3F0E0CF
:101620008B8181708170982F9295990F907E858122
:101630008F7D892B8583BCC0E0E3F0E08B818170D6
:101640008170982F9295990F990F907C85818F7B4F
:10165000892B8583ADC0E0E3F0E08B818170982F0A
:1016600097959927979585818F77892B8583A0C03A
:101670008A81282F30E03D832C838C819D818330AB
:10168000910509F451C02C813D81243031057CF451
:101690008C819D818130910571F12C813D812230B9
:1016A0003105ACF58C819D810097D1F081C02C81F2
:1016B0003D812530310509F452C08C819D818530F2
:1016C00091050CF43FC02C813D812630310509F491
:1016D00054C08C819D818730910509F45DC068C03C
:1016E000E0E3F0E08B818170982F917082818E7F92
:1016F000892B82835DC0E0E3F0E08B818170817093
:10170000982F990F82818D7F892B828351C0E0E3CE
:10171000F0E08B8181708170982F990F990F8281F1
:101720008B7F892B828344C0E0E3F0E08B81817062
:101730008170982F990F990F990F8281877F892B3C
:10174000828336C0E0E3F0E08B8181708170982F56
:101750009295907F82818F7E892B828329C0E0E3DE
:10176000F0E08B8181708170982F9295990F907E17
:1017700082818F7D892B82831BC0E0E3F0E08B8127
:1017800081708170982F9295990F990F907C82812A
:101790008F7B892B82830CC0E0E3F0E08B8181702A
:1017A000982F97959927979582818F77892B828398
:1017B0002D960FB6F894DEBF0FBECDBFCF91DF914F
:1017C0000895DF93CF93CDB7DEB72D970FB6F8947A
:1017D000DEBF0FBECDBF8A836B838A81282F30E0A6
:1017E0003D872C878C859D858130910509F48CC0BF
:1017F0002C853D85223031052CF48C859D85009704
:1018000071F0E0C12C853D852230310509F4F1C02D
:101810008C859D858330910509F460C1D3C18B818E
:10182000282F30E03B872A878A859B858330910566
:1018300009F43EC02A853B85243031057CF48A8535
:101840009B858130910529F12A853B852230310520
:101850003CF58A859B850097B1F0B4C12A853B850C
:1018600025303105B1F18A859B85853091054CF194
:101870002A853B8526303105A9F18A859B858730ED
:101880009105D1F19FC1E0E3F0E08185817089830A
:1018900099C1E0E3F0E0818586958170898392C1EA
:1018A000E0E3F0E0818586958695817089838AC121
:1018B000E0E3F0E081858695869586958170898341
:1018C00081C1E0E3F0E0818582958F70817089832A
:1018D00079C1E0E3F0E0818582958695877081701B
:1018E000898370C1E0E3F0E08185829586958695D5
:1018F00083708170898366C1E0E3F0E08185881F91
:101900008827881F89835EC18B81282F30E0398723
:101910002887888599858330910509F43EC02885FC
:101920003985243031057CF488859985813091058D
:1019300029F128853985223031053CF5888599853E
:101940000097B1F03FC12885398525303105B1F1C7
:1019500088859985853091054CF128853985263013
:101960003105A9F18885998587309105D1F12AC182
:10197000E0E3F0E086818170898324C1E0E3F0E058
:1019800086818695817089831DC1E0E3F0E08681C0
:10199000869586958170898315C1E0E3F0E08681A4
:1019A000869586958695817089830CC1E0E3F0E089
:1019B000868182958F708170898304C1E0E3F0E0B5
:1019C000868182958695877081708983FBC0E0E36C
:1019D000F0E08681829586958695837081708983F3
:1019E000F1C0E0E3F0E08681881F8827881F8983A3
:1019F000E9C08B81282F30E03F832E838E819F8129
:101A00008330910509F43EC02E813F812430310599
:101A10007CF48E819F818130910529F12E813F8157
:101A2000223031053CF58E819F810097B1F0CAC00C
:101A30002E813F8125303105B1F18E819F81853026
:101A400091054CF12E813F8126303105A9F18E811F
:101A50009F8187309105D1F1B5C0E0E3F0E083814B
:101A600081708983AFC0E0E3F0E083818695817067
:101A70008983A8C0E0E3F0E0838186958695817034
:101A80008983A0C0E0E3F0E0838186958695869502
:101A90008170898397C0E0E3F0E0838182958F7045
:101AA000817089838FC0E0E3F0E083818295869521
:101AB00087708170898386C0E0E3F0E0838182953E
:101AC000869586958370817089837CC0E0E3F0E021
:101AD0008381881F8827881F898374C08B81282F62
:101AE00030E03D832C838C819D818330910509F406
:101AF0003EC02C813D81243031057CF48C819D8158
:101B00008130910529F12C813D81223031053CF550
:101B10008C819D810097B1F055C02C813D8125308D
:101B20003105B1F18C819D81853091054CF12C817D
:101B30003D8126303105A9F18C819D818730910549
:101B4000D1F140C0E0E3F0E08081817089833AC048
:101B5000E0E3F0E0808186958170898333C0E0E323
:101B6000F0E0808186958695817089832BC0E0E3C3
:101B7000F0E080818695869586958170898322C064
:101B8000E0E3F0E0808182958F70817089831AC0D4
:101B9000E0E3F0E08081829586958770817089838B
:101BA00011C0E0E3F0E08081829586958695837090
:101BB0008170898307C0E0E3F0E08081881F882777
:101BC000881F898389812D960FB6F894DEBF0FBEDA
:101BD000CDBFCF91DF910895DF93CF9300D000D098
:101BE000CDB7DEB789836A838981282F30E03C83B3
:101BF0002B838B819C818130910521F12B813C814C
:101C0000223031052CF48B819C81009761F046C015
:101C10002B813C812230310521F18B819C818330E5
:101C2000910571F13BC08A81882321F4E0E3F0E063
:101C3000128634C08A81813089F5E0E3F0E08FEFCD
:101C400082872CC08A81882321F4E0E3F0E01782A8
:101C500025C08A81813011F5E0E3F0E08FEF8783C2
:101C60001DC08A81882321F4E0E3F0E0148216C0CD
:101C70008A81813099F4E0E3F0E08FEF84830EC035
:101C80008A81882321F4E0E3F0E0118207C08A8191
:101C9000813021F4E0E3F0E08FEF81830F900F902B
:101CA0000F900F90CF91DF910895DF93CF9300D0E5
:101CB00000D0CDB7DEB789836A838981282F30E0D1
:101CC0003C832B838B819C818130910521F12B8179
:101CD0003C81223031052CF48B819C81009761F08E
:101CE00046C02B813C812230310521F18B819C81C2
:101CF0008330910571F13BC08A81813029F4E0E3A2
:101D0000F0E08FEF838733C08A81882381F5E0E399
:101D1000F0E013862CC08A81813029F4E0E3F0E002
:101D20008FEF808724C08A81882309F5E0E3F0E003
:101D300010861DC08A81813029F4E0E3F0E08FEF46
:101D4000858315C08A81882391F4E0E3F0E0158251
:101D50000EC08A81813029F4E0E3F0E08FEF8283C6
:101D600006C08A81882319F4E0E3F0E012820F9024
:101D70000F900F900F90CF91DF910895DF93CF9345
:101D800000D000D0CDB7DEB78A838A81282F30E01B
:101D90003C832B838B819C8181309105D1F02B81F9
:101DA0003C81223031052CF48B819C81009761F0BD
:101DB0001EC02B813C812230310581F08B819C81BA
:101DC0008330910581F013C0E0E3F0E081858983E1
:101DD0000EC0E0E3F0E08681898309C0E0E3F0E033
:101DE0008381898304C0E0E3F0E080818983898175
:101DF0000F900F900F900F90CF91DF910895DF9388
:101E0000CF93CDB7DEB7AFE5B0E0EFE5F0E080818E
:101E100080688C93CF91DF910895DF93CF93CDB7F6
:101E2000DEB7EFE5F0E0AFE5B0E08C918083CF91D5
:101E3000DF9108950F93DF93CF9300D000D000D0AF
:101E4000CDB7DEB78A836B834C832D830E831982D3
:101E500099818B81892B89838A81882F90E0880FD3
:101E6000991F880F991F982F8981892B8983E0E218
:101E7000F0E0898186AB198299818C81892B8983D5
:101E8000E0E2F0E089818183E0E2F0E08D8180830F
:101E9000198299818E81892B8983E0E2F0E0898122
:101EA000818326960FB6F894DEBF0FBECDBFCF91CB
:101EB000DF910F910895DF93CF930F92CDB7DEB7E7
:101EC0008983E0E2F0E089818383E0E2F0E084E866
:101ED00086ABE0E2F0E086A98823DCF70F90CF9193
:101EE000DF910895DF93CF93CDB7DEB7E0E2F0E066
:101EF00084EA86ABE0E2F0E086A98823DCF7CF91A4
:101F0000DF910895DF93CF93CDB7DEB7E0E2F0E045
:101F100084E986ABCF91DF910895DF93CF9300D012
:101F2000CDB7DEB79A838983E0E2F0E084EC86AB3C
:101F3000E0E2F0E086A98823DCF7E0E2F0E08381CC
:101F4000E981FA8180830F900F90CF91DF910895FE
:101F5000DF93CF9300D0CDB7DEB79A838983E0E2D9
:101F6000F0E084E886ABE0E2F0E086A98823DCF7C5
:101F7000E0E2F0E08381E981FA8180830F900F90A5
:101F8000CF91DF910895DF93CF9300D0CDB7DEB727
:101F90009A838983E0E2F0E08181887FE981FA8198
:101FA00080830F900F90CF91DF910895DF93CF93AF
:101FB000CDB7DEB76E970FB6F894DEBF0FBECDBFBC
:101FC0001E8E17C08E8D882F90E0FC01E859FE4FC1
:101FD00020818E8D882F90E00196FC01E859FE4FFC
:101FE0009081822F692F41E00E946B068E8D8E5F5B
:101FF0008E8F8E8D863030F38EE08D8F17C08D8D55
:10200000882F90E0FC01E859FE4F20818D8D882FAC
:1020100090E00196FC01E859FE4F9081822F692FD4
:1020200041E00E946B068D8D8E5F8D8F8D8D863188
:1020300030F380E090E0A8E4B2E4898F9A8FAB8F10
:10204000BC8F698D7A8D8B8D9C8D20E030E04AE7C6
:1020500055E40E941F02DC01CB018D8B9E8BAF8B60
:10206000B88F6D897E898F89988D20E030E040E8B7
:102070005FE30E94790388232CF481E090E09C8B3D
:102080008B8B3FC06D897E898F89988D20E03FEFD3
:102090004FE757E40E94190318164CF5698D7A8DA5
:1020A0008B8D9C8D20E030E040E251E40E941F02C5
:1020B000DC01CB01BC01CD010E944900DC01CB0158
:1020C0009C8B8B8B0FC080E991E09A8B898B8989DF
:1020D0009A890197F1F79A8B898B8B899C89019753
:1020E0009C8B8B8B8B899C89009769F714C06D89B9
:1020F0007E898F89988D0E944900DC01CB019C8BE1
:102100008B8B8B899C89988B8F878F85988901977A
:10211000F1F7988B8F8783E30E94531182E30E942B
:1021200053118BE20E9453118CE00E94531181E005
:102130000E94531180E090E0A0E8BFE38B879C876A
:10214000AD87BE876B857C858D859E8520E030E0E0
:102150004AE755E40E941F02DC01CB018F83988778
:10216000A987BA876F81788589859A8520E030E0D4
:1021700040E85FE30E94790388232CF481E090E03B
:102180009E838D833FC06F81788589859A8520E005
:102190003FEF4FE757E40E94190318164CF56B8583
:1021A0007C858D859E8520E030E040E251E40E94F0
:1021B0001F02DC01CB01BC01CD010E944900DC0102
:1021C000CB019E838D830FC080E991E09C838B833C
:1021D0008B819C810197F1F79C838B838D819E81FC
:1021E00001979E838D838D819E81009769F714C02E
:1021F0006F81788589859A850E944900DC01CB0131
:102200009E838D838D819E819A83898389819A8122
:102210000197F1F79A83898386E00E9453116E96A5
:102220000FB6F894DEBF0FBECDBFCF91DF910895FA
:10223000DF93CF930F92CDB7DEB7898380E063E061
:1022400041E00E94260989810E94BF1380917F018D
:102250008F5F80937F0180917F01843100F1109224
:102260007F0180917E01833030F480917E018F5F09
:1022700080937E010DC080917E01833031F41092F5
:102280007E0181E00E94531103C084E180937F01AD
:1022900080917E0190917F01692F0E9414120F900E
:1022A000CF91DF910895DF93CF930F92CDB7DEB733
:1022B000898380E063E040E00E94260989810E94D2
:1022C000BF130F90CF91DF910895DF93CF9300D08C
:1022D0000F92CDB7DEB79B838A8319820EC08981A6
:1022E000282F30E08A819B81FC01E20FF31F80815F
:1022F0000E94181189818F5F89838981282F30E09E
:102300008A819B81FC01E20FF31F8081882339F7CA
:1023100080917F01815080937F010F900F900F90EB
:10232000CF91DF910895DF93CF9300D000D0CDB748
:10233000DEB79B838A836C838C81843008F04CC029
:10234000198203C089818F5F89838981282F30E0BA
:102350008A819B81FC01E20FF31F8081882391F722
:1023600080918101482F50E08981282F30E084E15D
:1023700090E0BC01621B730B9B0180918001882F50
:1023800090E0B901681B790BCB01481759072CF075
:10239000109281018C810E94F31180918101982F0C
:1023A0008F5F809381018C81692F0E94141210929B
:1023B000800108C080E20E941811809180018F5F27
:1023C000809380019091800180918101981790F312
:1023D0008A819B810E9465110F900F900F900F9042
:1023E000CF91DF910895DF93CF9300D0CDB7DEB7C3
:1023F0008A838A81843098F48A8160E00E94141272
:10240000198206C080E20E94181189818F5F89833A
:1024100089818431B8F38A8160E00E9414120F90A0
:102420000F90CF91DF910895DF93CF93CDB7DEB7B3
:1024300027970FB6F894DEBF0FBECDBF8E836F8394
:102440008E8180937E018F8180937F011A8280E448
:102450008B8384E18C8384E58D838E81282F30E00B
:10246000CE010296FC01E20FF31F90818F81890F4C
:102470008983898180680E94531127960FB6F8944A
:10248000DEBF0FBECDBFCF91DF9108950F931F9395
:10249000DF93CF93CDB7DEB762970FB6F894DEBF68
:1024A0000FBECDBF6F87788B898B9A8B8F8598896C
:1024B000A989BA89BB2394F48DE20E9418118F85F3
:1024C0009889A989BA89B095A095909581959F4FD3
:1024D000AF4FBF4F8F87988BA98BBA8B8F85988909
:1024E000A989BA890097A105B10521F480E30E946A
:1024F000181150C01A822EC08A81082F10E08F85D3
:102500009889A989BA892AE030E040E050E0BC010E
:10251000CD010E946B16DC01CB01805D282FCE011E
:102520000396FC01E00FF11F20838A818F5F8A836D
:102530008F859889A989BA892AE030E040E050E087
:10254000BC01CD010E946B16DA01C9018F87988BFF
:10255000A98BBA8B8F859889A989BA89181619060B
:102560001A061B064CF28A818150898310C089812A
:10257000282F332727FD3095CE010396FC01E20F6B
:10258000F31F80810E94181189818150898389817C
:1025900088236CF762960FB6F894DEBF0FBECDBFEE
:1025A000CF91DF911F910F910895DF93CF9300D0CA
:1025B00000D000D0CDB7DEB79D838C836E83809131
:1025C0007E018B8380917F018A838E81882F90E0AA
:1025D000880F991F880F991F880F991F80640E9488
:1025E000531119820EC08981282F30E08C819D8182
:1025F000FC01E20FF31F80810E94181189818F5F17
:1026000089838981883078F38B8180937E018A81E8
:1026100080937F0180E80E94531126960FB6F894AC
:10262000DEBF0FBECDBFCF91DF910895DF93CF9373
:102630000F92CDB7DEB7898389810E9418110F9060
:10264000CF91DF910895DF93CF93CDB7DEB72B976E
:102650000FB6F894DEBF0FBECDBF6F837887898732
:102660009A874B876F81788589859A8520E030E04D
:1026700040E050E00E947903882364F48DE20E94D8
:1026800018118F819885A985BA85B0588F8398874E
:10269000A987BA876F81788589859A850E944900C4
:1026A000DC01CB018B839C83AD83BE838B819C81BA
:1026B000AD81BE81BC01CD010E9446128B8588236D
:1026C00009F454C08EE20E9418116B817C818D81C7
:1026D0009E810E94FD039B01AC016F8178858985F5
:1026E0009A850E94C101DC01CB018F839887A9875D
:1026F000BA871A8237C06F81788589859A8520E0EC
:1027000030E040E251E40E941F02DC01CB018F83E4
:102710009887A987BA876F81788589859A850E946D
:102720004900DC01CB0189838981805D0E941811F9
:102730008981882F90E0A0E0B0E0BC01CD010E942B
:10274000FD039B01AC016F81788589859A850E9484
:10275000C101DC01CB018F839887A987BA878A8161
:102760008F5F8A839A818B85981728F22B960FB6F4
:10277000F894DEBF0FBECDBFCF91DF910895DF93F8
:10278000CF93CDB7DEB7C754D0400FB6F894DEBFB5
:102790000FBECDBF8BAF80E062E040E00E94260913
:1027A00084E18AAF52C08AAD882F90E0FC01E859DD
:1027B000FE4F208124962FAF24978AAD882F90E07A
:1027C0000196FC01E859FE4F308123963FAF2397D5
:1027D0008BAD282F30E022963FAF2EAF22978AADE7
:1027E000882F90E0069726969FAF8EAF2697269665
:1027F0008EAD9FAD2697992354F426962EAD3FAD0E
:1028000026972F5F3F4F26963FAF2EAF26972696EF
:102810008EAD9FAD26979595879522962EAD3FADAF
:10282000229702C0359527958A95E2F7C901982F1E
:10283000917024968FAD249723966FAD2397492FDF
:102840000E9426098AAD82508AAF8AAD8D3008F089
:10285000AACF80E062E041E00E94260980E090E09B
:10286000A0E8BFE38DAB9EABAFABB8AF6DA97EA9BF
:102870008FA998AD20E030E04AE755E40E941F029E
:10288000DC01CB0189AB9AABABABBCAB69A97AA934
:102890008BA99CA920E030E040E85FE30E94790327
:1028A00088232CF481E090E098AB8FA73FC069A902
:1028B0007AA98BA99CA920E03FEF4FE757E40E943B
:1028C000190318164CF56DA97EA98FA998AD20E0C3
:1028D00030E040E251E40E941F02DC01CB01BC0168
:1028E000CD010E944900DC01CB0198AB8FA70FC03E
:1028F00080E991E09EA78DA78DA59EA50197F1F790
:102900009EA78DA78FA598A9019798AB8FA78FA594
:1029100098A9009769F714C069A97AA98BA99CA9FD
:102920000E944900DC01CB0198AB8FA78FA598A925
:102930009CA78BA78BA59CA50197F1F79CA78BA7BC
:1029400080E062E040E00E94260980E090E0A0EA9A
:10295000B0E48FA398A7A9A7BAA76FA178A589A566
:102960009AA520E030E04AE755E40E941F02DC010E
:10297000CB018BA39CA3ADA3BEA36BA17CA18DA116
:102980009EA120E030E040E85FE30E9479038823C5
:102990002CF481E090E09AA389A33FC06BA17CA1B5
:1029A0008DA19EA120E03FEF4FE757E40E9419035D
:1029B00018164CF56FA178A589A59AA520E030E0FE
:1029C00040E251E40E941F02DC01CB01BC01CD01B9
:1029D0000E944900DC01CB019AA389A30FC080E9C2
:1029E00091E098A38F8F8F8D98A10197F1F798A30D
:1029F0008F8F89A19AA101979AA389A389A19AA1EE
:102A0000009769F714C06BA17CA18DA19EA10E94C3
:102A10004900DC01CB019AA389A389A19AA19E8FC9
:102A20008D8F8D8D9E8D0197F1F79E8F8D8F84E117
:102A300089AF46C089AD882F90E0FC01E859FE4F70
:102A400030813FAF89AD882F90E00196FC01E859B5
:102A5000FE4F80818EAF8BAD282F30E03DAF2CAF85
:102A600089AD882F90E00E9728969FAF8EAF28975C
:102A700028968EAD9FAD2897992354F428962EADB5
:102A80003FAD28972F5F3F4F28963FAF2EAF289737
:102A900028968EAD9FAD2897959587952CAD3DAD29
:102AA00002C0359527958A95E2F7C901982F917054
:102AB0008FAD6EAD492F0E94260989AD825089AF36
:102AC00089AD8D3008F0B6CF80E062E041E00E9431
:102AD000260980E090E0A0E8BFE3898F9A8FAB8F52
:102AE000BC8F698D7A8D8B8D9C8D20E030E04AE71C
:102AF00055E40E941F02DC01CB018D8B9E8BAF8BB6
:102B0000B88F6D897E898F89988D20E030E040E80C
:102B10005FE30E94790388232CF481E090E09C8B92
:102B20008B8B3FC06D897E898F89988D20E03FEF28
:102B30004FE757E40E94190318164CF5698D7A8DFA
:102B40008B8D9C8D20E030E040E251E40E941F021A
:102B5000DC01CB01BC01CD010E944900DC01CB01AD
:102B60009C8B8B8B0FC080E991E09A8B898B898934
:102B70009A890197F1F79A8B898B8B899C890197A8
:102B80009C8B8B8B8B899C89009769F714C06D890E
:102B90007E898F89988D0E944900DC01CB019C8B36
:102BA0008B8B8B899C89988B8F878F8598890197D0
:102BB000F1F7988B8F8780E062E040E00E94260961
:102BC00080E090E0A0EAB0E48B879C87AD87BE8769
:102BD0006B857C858D859E8520E030E04AE755E455
:102BE0000E941F02DC01CB018F839887A987BA87D7
:102BF0006F81788589859A8520E030E040E85FE341
:102C00000E94790388232CF481E090E09E838D83D9
:102C10003FC06F81788589859A8520E03FEF4FE737
:102C200057E40E94190318164CF56B857C858D8539
:102C30009E8520E030E040E251E40E941F02DC016A
:102C4000CB01BC01CD010E944900DC01CB019E8378
:102C50008D830FC080E991E09C838B838B819C8165
:102C60000197F1F79C838B838D819E8101979E83D1
:102C70008D838D819E81009769F714C06F8178855F
:102C800089859A850E944900DC01CB019E838D8352
:102C90008D819E819A83898389819A810197F1F739
:102CA0009A838983C95BDF4F0FB6F894DEBF0FBEEE
:102CB000CDBFCF91DF9108950F93DF93CF93CDB721
:102CC000DEB70E94FF0E81E061E040E02CE000E012
:102CD0000E941A0FFFCF97FB092E05260ED057FD35
:102CE00004D014D00AD0001C38F45095409530958B
:102CF00021953F4F4F4F5F4F0895F6F79095809580
:102D0000709561957F4F8F4F9F4F0895A1E21A2EC6
:102D1000AA1BBB1BFD010DC0AA1FBB1FEE1FFF1F7F
:102D2000A217B307E407F50720F0A21BB30BE40BCF
:102D3000F50B661F771F881F991F1A9469F7609516
:102D40007095809590959B01AC01BD01CF010895D0
:102D50002F923F924F925F926F927F928F929F92AB
:102D6000AF92BF92CF92DF92EF92FF920F931F9399
:102D7000CF93DF93CDB7DEB7CA1BDB0B0FB6F8944A
:102D8000DEBF0FBECDBF09942A88398848885F848A
:102D90006E847D848C849B84AA84B984C884DF80FB
:102DA000EE80FD800C811B81AA81B981CE0FD11DDF
:102DB0000FB6F894DEBF0FBECDBFED010895F894B5
:022DC000FFCF43
:102DC20000000000000000000001020203030303F0
:102DD20004040404040404040505050505050505A9
:102DE2000505050505050505060606060606060689
:102DF2000606060606060606060606060606060671
:102E02000606060606060606070707070707070758
:102E12000707070707070707070707070707070740
:102E22000707070707070707070707070707070730
:102E32000707070707070707070707070707070720
:102E42000707070707070707080808080808080808
:102E520008080808080808080808080808080808F0
:102E620008080808080808080808080808080808E0
:102E720008080808080808080808080808080808D0
:102E820008080808080808080808080808080808C0
:102E920008080808080808080808080808080808B0
:102EA20008080808080808080808080808080808A0
:102EB2000808080808080808080808080808080890
:102EC20008080808080808080003000100020107B2
:0E2ED2000106010501030100010101020104D6
:00000001FF
