:100000000C942A000C948A0A0C94B70A0C94E40A03
:100010000C9447000C9447000C9447000C94470044
:100020000C9447000C9447000C9400100C94101092
:100030000C9447000C9447000C9447000C94470024
:100040000C9447000C9447000C9447000C94470014
:100050000C94470011241FBECFE5D8E0DEBFCDBF12
:1000600010E0A0E6B0E0E4EBF3E202C005900D92F0
:10007000A236B107D9F710E0A2E6B0E001C01D92A8
:10008000AA39B107E1F70E94E9100C94D8110C9439
:100090000000DF93CF93CDB7DEB72D970FB6F8945E
:1000A000DEBF0FBECDBF89836A834B838981282F32
:1000B00030E03D872C878C859D858130910509F442
:1000C000B8C02C853D85223031052CF48C859D856A
:1000D000009771F090C22C853D852230310509F4DE
:1000E00049C18C859D858330910509F4E4C183C2A3
:1000F0008A81282F30E03B872A878A859B85833039
:10010000910509F451C02A853B85243031057CF4E2
:100110008A859B858130910571F12A853B85223046
:100120003105ACF58A859B850097D1F064C22A859C
:100130003B852530310509F452C08A859B85853081
:1001400091050CF43FC02A853B852630310509F422
:1001500054C08A859B858730910509F45DC04BC2E8
:10016000E0E3F0E08B818170982F917082858E7F23
:10017000892B828740C2E0E3F0E08B81817081703F
:10018000982F990F82858D7F892B828734C2E0E377
:10019000F0E08B8181708170982F990F990F828583
:1001A0008B7F892B828727C2E0E3F0E08B8181700F
:1001B0008170982F990F990F990F8285877F892BCE
:1001C000828719C2E0E3F0E08B8181708170982F03
:1001D0009295907F82858F7E892B82870CC2E0E387
:1001E000F0E08B8181708170982F9295990F907EAD
:1001F00082858F7D892B8287FEC1E0E3F0E08B81D1
:1002000081708170982F9295990F990F907C8285BB
:100210008F7B892B8287EFC1E0E3F0E08B818170D7
:10022000982F97959927979582858F77892B828725
:10023000E2C18A81282F30E039872887888599850F
:100240008330910509F451C0288539852430310562
:100250007CF4888599858130910571F128853985EF
:1002600022303105ACF5888599850097D1F0C3C15E
:10027000288539852530310509F452C0888599854E
:10028000853091050CF43FC028853985263031052D
:1002900009F454C0888599858730910509F45DC0BB
:1002A000AAC1E0E3F0E08B818170982F9170878183
:1002B0008E7F892B87839FC1E0E3F0E08B81817083
:1002C0008170982F990F87818D7F892B878393C1A8
:1002D000E0E3F0E08B8181708170982F990F990F86
:1002E00087818B7F892B878386C1E0E3F0E08B8158
:1002F00081708170982F990F990F990F8781877F4F
:10030000892B878378C1E0E3F0E08B818170817075
:10031000982F9295907F87818F7E892B87836BC1E1
:10032000E0E3F0E08B8181708170982F9295990FB6
:10033000907E87818F7D892B87835DC1E0E3F0E02C
:100340008B8181708170982F9295990F990F907C75
:1003500087818F7B892B87834EC1E0E3F0E08B811F
:100360008170982F97959927979587818F77892BFB
:10037000878341C18A81282F30E03F832E838E817D
:100380009F818330910509F451C02E813F81243033
:1003900031057CF48E819F818130910571F12E8130
:1003A0003F8122303105ACF58E819F810097D1F0DD
:1003B00022C12E813F812530310509F452C08E8142
:1003C0009F81853091050CF43FC02E813F812630FE
:1003D000310509F454C08E819F818730910509F45D
:1003E0005DC009C1E0E3F0E08B818170982F9170CE
:1003F00084818E7F892B8483FEC0E0E3F0E08B81D3
:1004000081708170982F990F84818D7F892B8483CF
:10041000F2C0E0E3F0E08B8181708170982F990F3A
:10042000990F84818B7F892B8483E5C0E0E3F0E022
:100430008B8181708170982F990F990F990F84810A
:10044000877F892B8483D7C0E0E3F0E08B818170C4
:100450008170982F9295907F84818F7E892B8483E1
:10046000CAC0E0E3F0E08B8181708170982F929593
:10047000990F907E84818F7D892B8483BCC0E0E3BB
:10048000F0E08B8181708170982F9295990F990F70
:10049000907C84818F7B892B8483ADC0E0E3F0E086
:1004A0008B818170982F97959927979584818F7765
:1004B000892B8483A0C08A81282F30E03D832C8340
:1004C0008C819D818330910509F451C02C813D813F
:1004D000243031057CF48C819D818130910571F14E
:1004E0002C813D8122303105ACF58C819D810097B6
:1004F000D1F081C02C813D812530310509F452C0F5
:100500008C819D81853091050CF43FC02C813D810B
:100510002630310509F454C08C819D8187309105C6
:1005200009F45DC068C0E0E3F0E08B818170982F32
:10053000917081818E7F892B81835DC0E0E3F0E043
:100540008B8181708170982F990F81818D7F892B8C
:10055000818351C0E0E3F0E08B8181708170982F3E
:10056000990F990F81818B7F892B818344C0E0E3B0
:10057000F0E08B8181708170982F990F990F990FFE
:100580008181877F892B818336C0E0E3F0E08B8116
:1005900081708170982F9295907F81818F7E892BB9
:1005A000818329C0E0E3F0E08B8181708170982F16
:1005B0009295990F907E81818F7D892B81831BC0BD
:1005C000E0E3F0E08B8181708170982F9295990F14
:1005D000990F907C81818F7B892B81830CC0E0E314
:1005E000F0E08B818170982F97959927979581815D
:1005F0008F77892B81832D960FB6F894DEBF0FBEBF
:10060000CDBFCF91DF910895DF93CF93CDB7DEB704
:100610002D970FB6F894DEBF0FBECDBF89836A83D6
:100620004B838981282F30E03D872C878C859D85E1
:100630008130910509F4B8C02C853D852230310503
:100640002CF48C859D85009771F090C22C853D859A
:100650002230310509F449C18C859D85833091058F
:1006600009F4E4C183C28A81282F30E03B872A87BE
:100670008A859B858330910509F451C02A853B8585
:10068000243031057CF48A859B858130910571F198
:100690002A853B8522303105ACF58A859B850097FC
:1006A000D1F064C22A853B852530310509F452C05A
:1006B0008A859B85853091050CF43FC02A853B8552
:1006C0002630310509F454C08A859B858730910511
:1006D00009F45DC04BC2E0E3F0E08B818170982F9C
:1006E000917083858E7F892B838740C2E0E3F0E0A1
:1006F0008B8181708170982F990F83858D7F892BD5
:10070000838734C2E0E3F0E08B8181708170982FA1
:10071000990F990F83858B7F892B838727C2E0E30D
:10072000F0E08B8181708170982F990F990F990F4C
:100730008385877F892B838719C2E0E3F0E08B8173
:1007400081708170982F9295907F83858F7E892B01
:1007500083870CC2E0E3F0E08B8181708170982F79
:100760009295990F907E83858F7D892B8387FEC11B
:10077000E0E3F0E08B8181708170982F9295990F62
:10078000990F907C83858F7B892B8387EFC1E0E372
:10079000F0E08B818170982F9795992797958385A5
:1007A0008F77892B8387E2C18A81282F30E03987B0
:1007B0002887888599858330910509F451C028855B
:1007C0003985243031057CF48885998581309105FF
:1007D00071F12885398522303105ACF588859985F8
:1007E0000097D1F0C3C1288539852530310509F43A
:1007F00052C088859985853091050CF43FC02885C5
:1008000039852630310509F454C0888599858730AB
:10081000910509F45DC0AAC1E0E3F0E08B8181702D
:10082000982F917080858E7F892B80879FC1E0E310
:10083000F0E08B8181708170982F990F80858D7F7A
:10084000892B808793C1E0E3F0E08B818170817018
:10085000982F990F990F80858B7F892B808786C170
:10086000E0E3F0E08B8181708170982F990F990FF0
:10087000990F8085877F892B808778C1E0E3F0E03E
:100880008B8181708170982F9295907F80858F7E6B
:10089000892B80876BC1E0E3F0E08B8181708170F0
:1008A000982F9295990F907E80858F7D892B8087D8
:1008B0005DC1E0E3F0E08B8181708170982F9295AB
:1008C000990F990F907C80858F7B892B80874EC1F3
:1008D000E0E3F0E08B818170982F979599279795A9
:1008E00080858F77892B808741C18A81282F30E0CE
:1008F0003F832E838E819F818330910509F451C0FF
:100900002E813F81243031057CF48E819F8181309E
:10091000910571F12E813F8122303105ACF58E8138
:100920009F810097D1F022C12E813F812530310572
:1009300009F452C08E819F81853091050CF43FC02F
:100940002E813F812630310509F454C08E819F816C
:100950008730910509F45DC009C1E0E3F0E08B81C7
:100960008170982F917085818E7F892B8583FEC041
:10097000E0E3F0E08B8181708170982F990F858181
:100980008D7F892B8583F2C0E0E3F0E08B8181705D
:100990008170982F990F990F85818B7F892B858383
:1009A000E5C0E0E3F0E08B8181708170982F990FB2
:1009B000990F990F8581877F892B8583D7C0E0E3C5
:1009C000F0E08B8181708170982F9295907F858166
:1009D0008F7E892B8583CAC0E0E3F0E08B81817034
:1009E0008170982F9295990F907E85818F7D892BAC
:1009F0008583BCC0E0E3F0E08B8181708170982F2B
:100A00009295990F990F907C85818F7B892B858397
:100A1000ADC0E0E3F0E08B818170982F9795992726
:100A2000979585818F77892B8583A0C08A81282F10
:100A300030E03D832C838C819D818330910509F4C6
:100A400051C02C813D81243031057CF48C819D8105
:100A50008130910571F12C813D8122303105ACF559
:100A60008C819D810097D1F081C02C813D81253002
:100A7000310509F452C08C819D81853091050CF4BB
:100A80003FC02C813D812630310509F454C08C8152
:100A90009D818730910509F45DC068C0E0E3F0E016
:100AA0008B818170982F917082818E7F892B8283B8
:100AB0005DC0E0E3F0E08B8181708170982F990F29
:100AC00082818D7F892B828351C0E0E3F0E08B81AE
:100AD00081708170982F990F990F82818B7F892B5C
:100AE000828344C0E0E3F0E08B8181708170982FB5
:100AF000990F990F990F8281877F892B828336C046
:100B0000E0E3F0E08B8181708170982F9295907F67
:100B100082818F7E892B828329C0E0E3F0E08B8184
:100B200081708170982F9295990F907E82818F7D30
:100B3000892B82831BC0E0E3F0E08B8181708170A0
:100B4000982F9295990F990F907C82818F7B892B9A
:100B500082830CC0E0E3F0E08B818170982F979541
:100B60009927979582818F77892B82832D960FB64F
:100B7000F894DEBF0FBECDBFCF91DF910895DF9314
:100B8000CF93CDB7DEB72D970FB6F894DEBF0FBE6B
:100B9000CDBF8A836B838A81282F30E03D872C87E5
:100BA0008C859D858130910509F48CC02C853D850F
:100BB000223031052CF48C859D85009771F0E0C1C1
:100BC0002C853D852230310509F4F1C08C859D8549
:100BD0008330910509F460C1D3C18B81282F30E0A7
:100BE0003B872A878A859B858330910509F43EC01F
:100BF0002A853B85243031057CF48A859B858130AC
:100C0000910529F12A853B85223031053CF58A85FD
:100C10009B850097B1F0B4C12A853B85253031050D
:100C2000B1F18A859B85853091054CF12A853B85FC
:100C300026303105A9F18A859B8587309105D1F150
:100C40009FC1E0E3F0E081858170898399C1E0E391
:100C5000F0E0818586958170898392C1E0E3F0E0C0
:100C6000818586958695817089838AC1E0E3F0E06D
:100C700081858695869586958170898381C1E0E31B
:100C8000F0E0818582958F708170898379C1E0E37E
:100C9000F0E081858295869587708170898370C127
:100CA000E0E3F0E08185829586958695837081707A
:100CB000898366C1E0E3F0E08185881F8827881F6B
:100CC00089835EC18B81282F30E03987288788850A
:100CD00099858330910509F43EC0288539852430F3
:100CE00031057CF4888599858130910529F1288525
:100CF0003985223031053CF5888599850097B1F01A
:100D00003FC12885398525303105B1F18885998520
:100D1000853091054CF12885398526303105A9F1BA
:100D20008885998587309105D1F12AC1E0E3F0E00B
:100D300086818170898324C1E0E3F0E08681869515
:100D4000817089831DC1E0E3F0E0868186958695F8
:100D50008170898315C1E0E3F0E0868186958695F0
:100D60008695817089830CC1E0E3F0E086818295ED
:100D70008F708170898304C1E0E3F0E08681829501
:100D80008695877081708983FBC0E0E3F0E08681FF
:100D9000829586958695837081708983F1C0E0E3A2
:100DA000F0E08681881F8827881F8983E9C08B81AE
:100DB000282F30E03F832E838E819F8183309105E1
:100DC00009F43EC02E813F81243031057CF48E81B0
:100DD0009F818130910529F12E813F81223031059B
:100DE0003CF58E819F810097B1F0CAC02E813F8172
:100DF00025303105B1F18E819F81853091054CF10F
:100E00002E813F8126303105A9F18E819F81873067
:100E10009105D1F1B5C0E0E3F0E083818170898371
:100E2000AFC0E0E3F0E08381869581708983A8C03C
:100E3000E0E3F0E083818695869581708983A0C088
:100E4000E0E3F0E0838186958695869581708983BD
:100E500097C0E0E3F0E0838182958F708170898391
:100E60008FC0E0E3F0E08381829586958770817082
:100E7000898386C0E0E3F0E083818295869586953C
:100E80008370817089837CC0E0E3F0E08381881FF8
:100E90008827881F898374C08B81282F30E03D8389
:100EA0002C838C819D818330910509F43EC02C8177
:100EB0003D81243031057CF48C819D818130910508
:100EC00029F12C813D81223031053CF58C819D81B9
:100ED0000097B1F055C02C813D8125303105B1F12D
:100EE0008C819D81853091054CF12C813D8126308E
:100EF0003105A9F18C819D8187309105D1F140C0E8
:100F0000E0E3F0E08081817089833AC0E0E3F0E0C3
:100F1000808186958170898333C0E0E3F0E0808131
:100F200086958695817089832BC0E0E3F0E080810F
:100F30008695869586958170898322C0E0E3F0E0EE
:100F4000808182958F70817089831AC0E0E3F0E020
:100F500080818295869587708170898311C0E0E3D6
:100F6000F0E0808182958695869583708170898373
:100F700007C0E0E3F0E08081881F8827881F89830D
:100F800089812D960FB6F894DEBF0FBECDBFCF91ED
:100F9000DF910895DF93CF9300D000D0CDB7DEB7B7
:100FA00089836A838981282F30E03C832B838B815E
:100FB0009C818130910521F12B813C8122303105CA
:100FC0002CF48B819C81009761F046C02B813C8181
:100FD0002230310521F18B819C818330910571F1A3
:100FE0003BC08A81882321F4E0E3F0E0128634C01C
:100FF0008A81813089F5E0E3F0E08FEF82872CC0B1
:101000008A81882321F4E0E3F0E0178225C08A81F9
:10101000813011F5E0E3F0E08FEF87831DC08A8116
:10102000882321F4E0E3F0E0148216C08A81813045
:1010300099F4E0E3F0E08FEF84830EC08A81882387
:1010400021F4E0E3F0E0118207C08A81813021F4CD
:10105000E0E3F0E08FEF81830F900F900F900F90FF
:10106000CF91DF910895DF93CF9300D000D0CDB71B
:10107000DEB789836A838981282F30E03C832B8304
:101080008B819C818130910521F12B813C81223023
:1010900031052CF48B819C81009761F046C02B8137
:1010A0003C812230310521F18B819C818330910577
:1010B00071F13BC08A81813029F4E0E3F0E08FEFE9
:1010C000838733C08A81882381F5E0E3F0E01386CB
:1010D0002CC08A81813029F4E0E3F0E08FEF808733
:1010E00024C08A81882309F5E0E3F0E010861DC062
:1010F0008A81813029F4E0E3F0E08FEF858315C029
:101100008A81882391F4E0E3F0E015820EC08A81A1
:10111000813029F4E0E3F0E08FEF828306C08A811A
:10112000882319F4E0E3F0E012820F900F900F9003
:101130000F90CF91DF910895DF93CF9300D000D02F
:10114000CDB7DEB78A838A81282F30E03C832B839A
:101150008B819C8181309105D1F02B813C812230A3
:1011600031052CF48B819C81009761F01EC02B818E
:101170003C812230310581F08B819C818330910547
:1011800081F013C0E0E3F0E0818589830EC0E0E3E5
:10119000F0E08681898309C0E0E3F0E08381898300
:1011A00004C0E0E3F0E08081898389810F900F9093
:1011B0000F900F90CF91DF910895DF93CF93CDB72C
:1011C000DEB72A970FB6F894DEBF0FBECDBF898376
:1011D0006A838981282F30E03A87298789859A8513
:1011E0008130910509F472C029853A852230310594
:1011F00009F4D3C089859A85009709F0EDC08A81EA
:10120000282F30E038872F838F8198858130910592
:1012100039F12F813885223031052CF48F81988562
:10122000009761F0D9C02F8138852230310551F106
:101230008F81988583309105B9F1CEC0A4E5B0E0E7
:10124000E4E5F0E081818E7F11968C93A4E5B0E017
:10125000E4E5F0E081818D7F11968C931197BCC0FD
:10126000A4E5B0E0E4E5F0E08181816011968C9323
:10127000A4E5B0E0E4E5F0E081818D7F11968C93E8
:101280001197AAC0A4E5B0E0E4E5F0E081818E7F8B
:1012900011968C93A4E5B0E0E4E5F0E081818260F2
:1012A00011968C93119798C0A4E5B0E0E4E5F0E0C6
:1012B0008181816011968C93A4E5B0E0E4E5F0E0D3
:1012C0008181826011968C93119786C08A81282F24
:1012D00030E03E832D838D819E818130910539F1EF
:1012E0002D813E81223031052CF48D819E81009725
:1012F00061F072C02D813E812230310551F18D8126
:101300009E8183309105B9F167C0A4E5B0E0E4E5C2
:10131000F0E081818B7F11968C93A4E5B0E0E4E549
:10132000F0E08181877F11968C93119755C0A4E5D9
:10133000B0E0E4E5F0E08181846011968C93A4E54F
:10134000B0E0E4E5F0E08181877F11968C931197FE
:1013500043C0A4E5B0E0E4E5F0E081818B7F119625
:101360008C93A4E5B0E0E4E5F0E08181886011961B
:101370008C93119731C0A4E5B0E0E4E5F0E0818101
:10138000846011968C93A4E5B0E0E4E5F0E08181FF
:10139000886011968C9311971FC08A81282F30E0A6
:1013A0003C832B838B819C818230910531F02B8192
:1013B0003C812330310549F00FC0A4E5B0E0E4E5FD
:1013C000F0E080818F7B8C9307C0A4E5B0E0E4E57A
:1013D000F0E0808180648C932A960FB6F894DEBF8B
:1013E0000FBECDBFCF91DF910895DF93CF9300D093
:1013F0000F92CDB7DEB789838981282F30E03B83F8
:101400002A838A819B818130910599F02A813B81D1
:1014100022303105C1F08A819B810097E9F4A4E56F
:10142000B0E0E4E5F0E08781806417968C9317972D
:1014300013C0A4E5B0E0E4E5F0E08781806817968A
:101440008C93179709C0A4E5B0E0E4E5F0E087814C
:10145000806217968C9317970F900F900F90CF91F3
:10146000DF910895DF93CF9300D00F92CDB7DEB711
:1014700089838981282F30E03B832A838A819B815D
:101480008130910599F02A813B8122303105C1F0EC
:101490008A819B810097E9F4A4E5B0E0E4E5F0E0FF
:1014A00087818F7B17968C93179713C0A4E5B0E0C4
:1014B000E4E5F0E087818F7717968C93179709C042
:1014C000A4E5B0E0E4E5F0E087818F7D17968C938A
:1014D00017970F900F900F90CF91DF910895DF93A2
:1014E000CF9300D00F92CDB7DEB789837B836A8319
:1014F0008981882F90E0880F991FFC01EE59FF4FDA
:101500008A819B81918380830F900F900F90CF9160
:10151000DF9108951F920F920FB60F9211242F930F
:101520003F934F935F936F937F938F939F93AF936B
:10153000BF93EF93FF93DF93CF93CDB7DEB7E091E7
:101540006200F09163000995CF91DF91FF91EF91D7
:10155000BF91AF919F918F917F916F915F914F91CB
:101560003F912F910F900FBE0F901F9018951F92D3
:101570000F920FB60F9211242F933F934F935F93C7
:101580006F937F938F939F93AF93BF93EF93FF934B
:10159000DF93CF93CDB7DEB7E0916400F0916500A3
:1015A0000995CF91DF91FF91EF91BF91AF919F91FD
:1015B0008F917F916F915F914F913F912F910F90FC
:1015C0000FBE0F901F9018951F920F920FB60F929B
:1015D00011242F933F934F935F936F937F938F9338
:1015E0009F93AF93BF93EF93FF93DF93CF93CDB7C9
:1015F000DEB7E0916600F09167000995CF91DF9129
:10160000FF91EF91BF91AF919F918F917F916F91DA
:101610005F914F913F912F910F900FBE0F901F90B0
:101620001895DF93CF93CDB7DEB7AFE5B0E0EFE528
:10163000F0E0808180688C93CF91DF910895DF93F3
:10164000CF93CDB7DEB7EFE5F0E0AFE5B0E08C913A
:101650008083CF91DF910895DF93CF93CDB7DEB72D
:101660000E94FC0C22E53CE068EE73E080E090E034
:1016700041E00E94790ECF91DF910895DF93CF93DF
:10168000CDB7DEB727970FB6F894DEBF0FBECDBF3C
:101690009A8389837C836B835E834D832F838F81C1
:1016A000843008F04AC08F81282F30E0C901880FAC
:1016B000991F880F991F880F991F821B930BFC019C
:1016C000E559FF4F89819A81918380838F81282FEB
:1016D00030E0C901880F991F880F991F880F991F43
:1016E000821B930BFC01E759FF4F8B819C819183F7
:1016F00080838F81282F30E0C901880F991F880FC0
:10170000991F880F991F821B930BFC01E359FF4F10
:101710008D819E81918380838F81282F30E0C90144
:10172000880F991F880F991F880F991F821B930B91
:10173000FC01E859FF4F85E0808327960FB6F894A7
:10174000DEBF0FBECDBFCF91DF910895DF93CF9362
:101750000F92CDB7DEB789838981282F30E0C90188
:10176000880F991F880F991F880F991F821B930B51
:10177000FC01E359FF4F80819181009789F08981B5
:10178000282F30E0C901880F991F880F991F880FF3
:10179000991F821B930BFC01E859FF4F86E0808361
:1017A0000F90CF91DF910895DF93CF930F92CDB734
:1017B000DEB789838981282F30E0C901880F991FFE
:1017C000880F991F880F991F821B930BFC01E35907
:1017D000FF4F80819181009789F08981282F30E027
:1017E000C901880F991F880F991F880F991F821BA5
:1017F000930BFC01E859FF4F85E080830F90CF9158
:10180000DF910895DF93CF930F92CDB7DEB7898331
:101810008981282F30E0C901880F991F880F991FEF
:10182000880F991F821B930BFC01E359FF4F8081A6
:101830009181009799F18981282F30E0C901880FA3
:10184000991F880F991F880F991F821B930BFC010A
:10185000E559FF4F118210828981282F30E0C9019C
:10186000880F991F880F991F880F991F821B930B50
:10187000FC01E359FF4F118210828981282F30E04B
:10188000C901880F991F880F991F880F991F821B04
:10189000930BFC01E759FF4F118210820F90CF91FB
:1018A000DF910895DF93CF930F92CDB7DEB7198202
:1018B0009BC08981282F30E0C901880F991F880FAC
:1018C000991F880F991F821B930BFC01E359FF4F4F
:1018D00080819181009709F484C08981282F30E0AC
:1018E000C901880F991F880F991F880F991F821BA4
:1018F000930BFC01E859FF4F8081853009F071C0DE
:101900008981282F30E0C901880F991F880F991FFE
:10191000880F991F821B930BFC01E559FF4F8081B3
:1019200091810097C9F58981482F50E08981282F3E
:1019300030E0C901880F991F880F991F880F991FE0
:10194000821B930BFC01E759FF4F808191819C0121
:10195000285E3340CA01880F991F880F991F880F8E
:10196000991F841B950BFC01E559FF4F31832083A0
:101970008981282F30E0C901880F991F880F991F8E
:10198000880F991F821B930BFC01E359FF4F0190B5
:10199000F081E02D099525C08981482F50E089818B
:1019A000282F30E0C901880F991F880F991F880FD1
:1019B000991F821B930BFC01E559FF4F8081918198
:1019C0009C01285E3340CA01880F991F880F991F18
:1019D000880F991F841B950BFC01E559FF4F31833C
:1019E000208389818F5F89838981843008F461CF66
:1019F0000F90CF91DF910895DF93CF93CDB7DEB7EE
:101A0000A0E5B0E0E0E5F0E08381877B13968C935E
:101A1000A0E5B0E0E0E5F0E0838113968C93A0E5CB
:101A2000B0E0E0E5F0E083818F7C13968C93A0E535
:101A3000B0E0E0E5F0E0838113968C931397CF91AB
:101A4000DF910895DF93CF93CDB7DEB7A0E5B0E087
:101A5000E0E5F0E08381887F13968C93A0E5B0E009
:101A6000E0E5F0E08381816013968C931397CF912A
:101A7000DF910895DF93CF93CDB7DEB7A0E5B0E057
:101A8000E0E5F0E08381887F13968C93A0E5B0E0D9
:101A9000E0E5F0E0838113968C931397CF91DF916B
:101AA0000895DF93CF93CDB7DEB72F970FB6F89495
:101AB000DEBF0FBECDBF69877A878B879C874D8736
:101AC0001092600081E00E94C90F1D821E821F8259
:101AD000188619821A821B821C8280E094E2A4EF8D
:101AE000B0E089839A83AB83BC838D85282F30E057
:101AF0003F872E878E859F858130910509F44EC0E2
:101B00002E853F852230310509F495C08E859F854D
:101B1000009709F0DCC089859A85AB85BC85298151
:101B20003A814B815C81BC01CD010E949711DC019F
:101B3000CB018D839E83AF83B8878D819E81AF81DA
:101B4000B8852FEF30E040E050E0BC01CD010E94AD
:101B5000B611DA01C9018093840090938500A093A7
:101B60008600B09387008D819E81AF81B8852FEF6D
:101B700030E040E050E0BC01CD010E94B611DC0134
:101B8000CB018093880080918800809580938800A5
:101B9000E0E5F0E080918800828399C089819A8194
:101BA000AB81BC8128EE33E040E050E0BC01CD01C8
:101BB0000E94B611DA01C90129853A854B855C85F9
:101BC000BC01CD010E949711DC01CB018D839E8366
:101BD000AF83B8878D819E81AF81B8852FEF30E0CC
:101BE00040E050E0BC01CD010E94B611DA01C9010C
:101BF0008093840090938500A0938600B093870023
:101C00008D819E81AF81B8852FEF30E040E050E0BC
:101C1000BC01CD010E94B611DC01CB01809388008C
:101C200080918800809580938800E0E5F0E08091C5
:101C3000880082834CC089819A81AB81BC8120E479
:101C400032E44FE050E0BC01CD010E94B611DA0150
:101C5000C90129853A854B855C85BC01CD010E946F
:101C60009711DC01CB018D839E83AF83B8878D8173
:101C70009E81AF81B8852FEF30E040E050E0BC019D
:101C8000CD010E94B611DA01C901809384009093BE
:101C90008500A0938600B09387008D819E81AF81DF
:101CA000B8852FEF30E040E050E0BC01CD010E944C
:101CB000B611DC01CB01809388008091880080956B
:101CC00080938800E0E5F0E08091880082830E94A4
:101CD000220D81E00E94A60F809160008823E1F32D
:101CE0002F960FB6F894DEBF0FBECDBFCF91DF9118
:101CF0000895DF93CF93CDB7DEB761970FB6F89411
:101D0000DEBF0FBECDBF69877A878B879C874D87E3
:101D10003F872E8781E08093600081E00E94C90F99
:101D20001D821E821F82188619821A821B821C82C3
:101D300080E094E2A4EFB0E089839A83AB83BC8314
:101D40008D85282F30E0398B288B888999898130BF
:101D5000910509F44EC0288939892230310509F4EA
:101D600095C088899989009709F0DCC089859A8592
:101D7000AB85BC8529813A814B815C81BC01CD0159
:101D80000E949711DC01CB018D839E83AF83B887BE
:101D90008D819E81AF81B8852FEF30E040E050E02B
:101DA000BC01CD010E94B611DA01C9018093840003
:101DB00090938500A0938600B09387008D819E81CB
:101DC000AF81B8852FEF30E040E050E0BC01CD019D
:101DD0000E94B611DC01CB018093880080918800BD
:101DE000809580938800E0E5F0E080918800828310
:101DF00099C089819A81AB81BC8128EE33E040E0B3
:101E000050E0BC01CD010E94B611DA01C90129855B
:101E10003A854B855C85BC01CD010E949711DC01A0
:101E2000CB018D839E83AF83B8878D819E81AF81E7
:101E3000B8852FEF30E040E050E0BC01CD010E94BA
:101E4000B611DA01C9018093840090938500A093B4
:101E50008600B09387008D819E81AF81B8852FEF7A
:101E600030E040E050E0BC01CD010E94B611DC0141
:101E7000CB018093880080918800809580938800B2
:101E8000E0E5F0E08091880082834CC089819A81EE
:101E9000AB81BC8120E432E44FE050E0BC01CD01D5
:101EA0000E94B611DA01C90129853A854B855C8506
:101EB000BC01CD010E949711DC01CB018D839E8373
:101EC000AF83B8878D819E81AF81B8852FEF30E0D9
:101ED00040E050E0BC01CD010E94B611DA01C90119
:101EE0008093840090938500A0938600B093870030
:101EF0008D819E81AF81B8852FEF30E040E050E0CA
:101F0000BC01CD010E94B611DC01CB018093880099
:101F100080918800809580938800E0E5F0E08091D2
:101F2000880082838E859F8590939700809396008A
:101F30000E94220D81E00E94A60F61960FB6F894D0
:101F4000DEBF0FBECDBFCF91DF910895DF93CF935A
:101F50000F92CDB7DEB789838981882351F4A0E53C
:101F6000B0E0E0E5F0E08185826019968C931997E6
:101F70000CC08981813049F4A0E5B0E0E0E5F0E0F3
:101F80008185816019968C9319970F90CF91DF917D
:101F90000895DF93CF930F92CDB7DEB78983898100
:101FA000882351F4A0E5B0E0E0E5F0E081858D7F85
:101FB00019968C9319970CC08981813049F4A0E55A
:101FC000B0E0E0E5F0E081858E7F19968C9319975B
:101FD0000F90CF91DF910895DF93CF930F92CDB7FC
:101FE000DEB789830F90CF91DF910895DF93CF9370
:101FF0000F92CDB7DEB789830F90CF91DF9108950F
:102000001F920F920FB60F921124DF93CF93CDB78B
:10201000DEB7CF91DF910F900FBE0F901F901895F4
:102020001F920F920FB60F9211242F933F934F934D
:102030005F936F937F938F939F93AF93BF93EF9330
:10204000FF93DF93CF93CDB7DEB7809160008130EF
:1020500009F042C080918D0090918E00A0918F0078
:10206000B09190000196A11DB11D80938D009093B9
:102070008E00A0938F00B093900080918400909187
:102080008500A0918600B09187009C01AD012F5F73
:102090003F4F4F4F5F4F80918D0090918E00A091E8
:1020A0008F00B0919000281739074A075B0709F0A5
:1020B00061C0E0919600F0919700099510928D0013
:1020C00010928E0010928F0010929000E0E5F0E0E8
:1020D0008091880082834EC080916000882309F03F
:1020E00049C08091890090918A00A0918B00B091A5
:1020F0008C000196A11DB11D8093890090938A00E8
:10210000A0938B00B0938C00809184009091850007
:10211000A0918600B09187009C01AD012F5F3F4FD9
:102120004F4F5F4F8091890090918A00A0918B0062
:10213000B0918C00281739074A075B0761F41092A9
:10214000890010928A0010928B0010928C0082E01D
:10215000809360000FC08091840090918500A091D1
:102160008600B09187000097A105B10519F482E0BF
:1021700080936000CF91DF91FF91EF91BF91AF917C
:102180009F918F917F916F915F914F913F912F918F
:102190000F900FBE0F901F901895DF93CF93CDB780
:1021A000DEB79091910081E0892780939100809122
:1021B0009100882321F480E00E94A60B07C0809143
:1021C0009100813019F480E00E94D40BCF91DF910F
:1021D0000895DF93CF93CDB7DEB70E94FC0C83E068
:1021E00063E040E00E94490083E063E041E00E9438
:1021F000040381E067E041E00E94490080E064E080
:1022000041E00E94490080E065E041E00E94490011
:1022100080E066E041E00E9449002DEC30E181E081
:10222000B9010E946F0A81E063E00E94DD0881E04D
:102230000E94F50927E431E180E090E068EE73E068
:10224000A90120E00E943E0B2BE531E188EE93E0EE
:1022500060ED77E0A90121E00E943E0B2FE631E11D
:1022600080ED97E068EB7BE0A90122E00E943E0B45
:1022700023E831E188EB9BE060EA7FE0A90123E0FD
:102280000E943E0B0E942C0B0E94110BFFCFDF938C
:10229000CF93CDB7DEB79091920081E089278093EC
:1022A00092009091920081E067E0492F0E94040320
:1022B000CF91DF910895DF93CF93CDB7DEB79091A3
:1022C000930081E08927809393009091930080E0B0
:1022D00064E0492F0E940403CF91DF910895DF93BA
:1022E000CF93CDB7DEB79091940081E0892780939A
:1022F00094009091940080E065E0492F0E940403CF
:10230000CF91DF910895DF93CF93CDB7DEB7909152
:10231000950081E08927809395009091950080E059
:1023200066E0492F0E940403CF91DF910895629FD8
:10233000D001739FF001829FE00DF11D649FE00DBD
:10234000F11D929FF00D839FF00D749FF00D659F1E
:10235000F00D9927729FB00DE11DF91F639FB00D1D
:10236000E11DF91FBD01CF0111240895A1E21A2E2C
:10237000AA1BBB1BFD010DC0AA1FBB1FEE1FFF1F29
:10238000A217B307E407F50720F0A21BB30BE40B79
:10239000F50B661F771F881F991F1A9469F76095C0
:1023A0007095809590959B01AC01BD01CF0108957A
:0423B000F894FFCFCF
:0223B400020025
:00000001FF
