:100000000C942A000C9447000C9447000C94470071
:100010000C9447000C9447000C9447000C94470044
:100020000C9447000C9447000C94F3040C94FD04CA
:100030000C9447000C9447000C9447000C94470024
:100040000C9447000C9447000C9447000C94470014
:100050000C94470011241FBECFE5D8E0DEBFCDBF12
:1000600010E0A0E6B0E0E0EDFBE002C005900D92EC
:10007000A236B107D9F710E0A2E6B0E001C01D92A8
:10008000A737B107E1F70E9490050C94E6050C94A0
:100090000000813009F44EC0813038F0823009F41C
:1000A0008EC0833009F015C1CFC06330F9F06430E1
:1000B00030F4613089F04170623098F40AC06530E4
:1000C00011F16530D0F0663029F1673009F001C1D7
:1000D00029C08AB38E7F2BC04170440F8AB38D7FB5
:1000E00026C0440F440F8AB38B7F21C04170440F58
:1000F000440F440F8AB3877F1AC041704295407FF6
:100100008AB38F7E14C041704295440F407E8AB3FB
:100110008F7D0DC041704295440F440F407C8AB3DF
:100120008F7B05C04795442747958AB38F77842BEB
:100130008ABB08956330F9F0643030F4613089F09F
:100140004170623098F40AC0653011F16530D0F02A
:10015000663029F1673009F0BCC029C087B38E7FB3
:100160002BC04170440F87B38D7F26C0440F440FCE
:1001700087B38B7F21C04170440F440F440F87B376
:10018000877F1AC041704295407F87B38F7E14C02D
:1001900041704295440F407E87B38F7D0DC0417002
:1001A0004295440F440F407C87B38F7B05C0479531
:1001B0004427479587B38F77842B87BB0895633097
:1001C000F9F0643030F4613089F04170623098F4B5
:1001D0000AC0653011F16530D0F0663029F1673022
:1001E00009F077C029C084B38E7F2BC04170440FC3
:1001F00084B38D7F26C0440F440F84B38B7F21C00E
:100200004170440F440F440F84B3877F1AC041707C
:100210004295407F84B38F7E14C041704295440F55
:10022000407E84B38F7D0DC041704295440F440FD2
:10023000407C84B38F7B05C047954427479584B3A2
:100240008F77842B84BB08956330F1F0643030F4F1
:10025000613081F04170623090F409C0653009F17D
:100260006530C8F0663021F1673099F52BC081B355
:100270008E7F25C04170440F81B38D7F20C0440F15
:10028000440F81B38B7F1BC04170440F440F440F58
:1002900081B3877F14C041704295407F81B38F7EC8
:1002A0000EC041704295440F407E81B38F7D07C0E0
:1002B00041704295440F440F407C81B38F7B842B67
:1002C00081BB089547954427479581B38F77842B49
:1002D00081BB0895813009F44EC0813038F08230FE
:1002E00009F48EC0833009F015C1CFC06330F9F036
:1002F000643030F4613089F04170623098F40AC0A3
:10030000653011F16530D0F0663029F1673009F0C1
:1003100001C129C08BB38E7F2BC04170440F8BB3BA
:100320008D7F26C0440F440F8BB38B7F21C041705B
:10033000440F440F440F8BB3877F1AC0417042951E
:10034000407F8BB38F7E14C041704295440F407E36
:100350008BB38F7D0DC041704295440F440F407C9C
:100360008BB38F7B05C04795442747958BB38F7719
:10037000842B8BBB08956330F9F0643030F4613026
:1003800089F04170623098F40AC0653011F165302F
:10039000D0F0663029F1673009F0BCC029C088B3BD
:1003A0008E7F2BC04170440F88B38D7F26C0440FD1
:1003B000440F88B38B7F21C04170440F440F440F1A
:1003C00088B3877F1AC041704295407F88B38F7E83
:1003D00014C041704295440F407E88B38F7D0DC09C
:1003E00041704295440F440F407C88B38F7B05C019
:1003F00047954427479588B38F77842B88BB08950A
:100400006330F9F0643030F4613089F0417062306B
:1004100098F40AC0653011F16530D0F0663029F1EA
:10042000673009F077C029C085B38E7F2BC041703B
:10043000440F85B38D7F26C0440F440F85B38B7F57
:1004400021C04170440F440F440F85B3877F1AC009
:1004500041704295407F85B38F7E14C041704295B4
:10046000440F407E85B38F7D0DC041704295440F8F
:10047000440F407C85B38F7B05C047954427479543
:1004800085B38F77842B85BB08956330F1F064309A
:1004900030F4613081F04170623090F409C0653011
:1004A00009F16530C8F0663021F1673099F52BC04D
:1004B00082B38E7F25C04170440F82B38D7F20C0F0
:1004C000440F440F82B38B7F1BC04170440F440F15
:1004D000440F82B3877F14C041704295407F82B33E
:1004E0008F7E0EC041704295440F407E82B38F7D57
:1004F00007C041704295440F440F407C82B38F7B0C
:10050000842B82BB089547954427479582B38F7704
:10051000842B82BB0895813061F1813038F08230C4
:1005200009F44AC0833009F0A1C06CC06330B9F04F
:10053000643028F4613079F0623078F40AC06530B4
:1005400091F0653070F0663081F0673009F08EC050
:100550000EC089B385C089B36AC089B36BC089B343
:100560006DC089B370C089B372C089B375C089B3D7
:1005700045C06330B9F0643028F4613079F06230FE
:1005800078F40AC0653091F0653070F0663081F023
:10059000673009F06BC00EC086B362C086B347C037
:1005A00086B348C086B34AC086B34DC086B34FC039
:1005B00086B352C086B322C06330B9F0643028F4E9
:1005C000613079F0623078F40AC0653091F06530BE
:1005D00070F0663081F0673009F048C00EC083B318
:1005E0003FC083B324C083B325C083B327C083B384
:1005F0002AC083B32CC083B32FC083B3881F88273E
:10060000881F08956330C9F0643028F4613071F0B8
:10061000623078F409C06530C9F0653098F0663012
:10062000D1F0673019F51EC080B31AC080B386952B
:1006300017C080B38695869513C080B3869586953E
:1006400086950EC080B382958F700AC080B3829564
:100650008695877005C080B3829586958695837050
:100660008170089580B3881F8827881F089581307E
:1006700081F0813028F08230A9F0833021F51BC051
:10068000662311F41ABA08956130E9F48FEF8ABB3A
:100690000895662311F417BA08956130A1F48FEF1D
:1006A00087BB0895662311F414BA0895613059F494
:1006B0008FEF84BB0895662311F411BA0895613059
:1006C00011F48FEF81BB0895813081F0813028F0E3
:1006D0008230A9F0833021F51BC0613019F48FEF0F
:1006E0008BBB08956623E1F41BBA0895613019F4B9
:1006F0008FEF88BB0895662399F418BA0895613086
:1007000019F48FEF85BB0895662351F415BA089547
:10071000613019F48FEF82BB0895662309F412BA91
:100720000895813049F0813028F0823039F08330EB
:1007300041F406C089B3089586B3089583B308953C
:1007400080B3089578940895F894089593B7977BAB
:1007500093BF93B7880F880F880F982B93BF83B7E9
:10076000877B83BF83B76295607F862B83BF0895A5
:1007700083B7887F83BF83B7856083BF089583B7BE
:10078000887F83BF83B783BF0895882321F489B707
:10079000826089BF0895813019F489B7816089BF6B
:1007A0000895882321F489B78D7F89BF089581300A
:1007B00019F489B78E7F89BF0895AF92BF92CF9207
:1007C000DF92EF92FF920F931F93CF93DF935B0122
:1007D0006C01142FE90181E0809360000E94D10335
:1007E000113009F1113020F0123009F05AC049C01F
:1007F000C601B50129E03DE340E050E00E94A505B7
:100800007B018C012FEF30E040E050E00E94C405F6
:10081000209362003093630040936400509365001E
:10082000C801B7011FC08601750184E0EE0CFF1CF2
:10083000001F111F8A95D1F7EA18FB080C091D0942
:10084000B701C8012FEF30E040E050E00E94C4053E
:1008500020936200309363004093640050936500DE
:10086000B701C8012FEF30E040E050E00E94C4051E
:1008700060936600709367008093680090936900AE
:1008800010C01092620010926300109264001092E7
:100890006500109266001092670010926800109236
:1008A0006900D0937300C093720083B7887F83BFC1
:1008B00083B7856083BF81E00E94C503DF91CF913C
:1008C0001F910F91FF90EF90DF90CF90BF90AF906E
:1008D0000895AF92BF92CF92DF92EF92FF920F9363
:1008E0001F935B016C01142F1092600081E00E9445
:1008F000D103113009F1113020F0123009F05AC043
:1009000049C0C601B50129E03DE340E050E00E9446
:10091000A5057B018C012FEF30E040E050E00E9404
:10092000C4052093620030936300409364005093A9
:100930006500C801B7011FC08601750194E0EE0C87
:10094000FF1C001F111F9A95D1F7EA18FB080C092C
:100950001D09B701C8012FEF30E040E050E00E94D0
:10096000C405209362003093630040936400509369
:100970006500B701C8012FEF30E040E050E00E9471
:10098000C40560936600709367008093680090933D
:10099000690010C01092620010926300109264000F
:1009A0001092650010926600109267001092680025
:1009B0001092690083B7887F83BF83B7856083BF48
:1009C00081E00E94C50380916000882309F4FFCF75
:1009D0001F910F91FF90EF90DF90CF90BF90AF905D
:1009E0000895089508951F920F920FB60F92112443
:1009F0000F900FBE0F901F9018951F920F920FB679
:100A00000F9211242F933F934F935F936F937F9394
:100A10008F939F93AF93BF93EF93FF938091600069
:100A2000813091F580916E0090916F00A0917000DF
:100A3000B09171000196A11DB11D80936E0090933D
:100A40006F00A0937000B09371002091620030910C
:100A50006300409164005091650082179307A407DA
:100A6000B50709F041C0809166008CBF10926E00FE
:100A700010926F001092700010927100E09172005D
:100A8000F0917300099530C0882371F580916A0058
:100A900090916B00A0916C00B0916D000196A11D2A
:100AA000B11D80936A0090936B00A0936C00B0938B
:100AB0006D0020916200309163004091640050917C
:100AC000650082179307A407B50771F4809166004B
:100AD0008CBF10926A0010926B0010926C00109202
:100AE0006D0082E080936000FF91EF91BF91AF9124
:100AF0009F918F917F916F915F914F913F912F9136
:100B00000F900FBE0F901F9018954091760081E0D6
:100B100048274093760080E065E00E946A010895CE
:100B200080E060E00E94A60380E065E041E00E9472
:100B300049000E94A20362E070E080E090E040E0A3
:100B400025E835E00E94DD03FFCF629FD001739F4F
:100B5000F001829FE00DF11D649FE00DF11D929F59
:100B6000F00D839FF00D749FF00D659FF00D992798
:100B7000729FB00DE11DF91F639FB00DE11DF91FBC
:100B8000BD01CF0111240895A1E21A2EAA1BBB1B9F
:100B9000FD010DC0AA1FBB1FEE1FFF1FA217B30749
:100BA000E407F50720F0A21BB30BE40BF50B661F5F
:100BB000771F881F991F1A9469F760957095809523
:100BC00090959B01AC01BD01CF010895F894FFCF32
:020BD000020021
:00000001FF
