:100000000C942A000C943F000C943F000C943F0089
:100010000C943F000C943F000C943F000C943F0064
:100020000C943F000C943F000C943F000C943F0054
:100030000C943F000C943F000C943F000C943F0044
:100040000C943F000C943F000C943F000C943F0034
:100050000C943F0011241FBECFE5D8E0DEBFCDBF1A
:1000600010E0A0E6B0E0ECE0F8E202C005900D92EE
:10007000AE38B107D9F70E946F130C9404140C9496
:100080000000EF92FF920F931F937B018C0120E001
:1000900030E040E05FE40E94410388238CF0C80117
:1000A000B70120E030E040E05FE40E94B9010E9427
:1000B000A1039B01AC01205030404040504806C095
:1000C000C801B7010E94A1039B01AC01B901CA019B
:1000D0001F910F91FF90EF900895A0E0B0E0E3E74B
:1000E000F0E00C948813DC012B01FA019C91923012
:1000F00008F439C1EB018881823008F433C19430AF
:1001000069F4843009F02FC111969C91119789816F
:10011000981709F428C1AEE6B0E025C1843009F48F
:1001200021C18230A9F4923009F01DC19A01AD01BC
:1001300088E0EA010990AE01E90109929E0181502F
:10014000C1F7E201898111969C918923818308C1BD
:10015000923009F407C112962D903C901397EB0151
:100160008A819B811496AD90BD90CD90DC901797BD
:10017000EC80FD800E811F819101281B390BB90194
:1001800037FF04C066277727621B730B6032710547
:100190000CF061C0121613066CF537014801062EEB
:1001A00004C096948794779467940A94D2F721E0D8
:1001B00030E040E050E004C0220F331F441F551FC1
:1001C0006A95D2F721503040404050402E213F21C7
:1001D00040235123211531054105510521F021E02E
:1001E00030E040E050E079018A01E628F72808294C
:1001F00019293CC0232BD1F1260E371E35014601AB
:10020000062E04C096948794779467940A94D2F744
:1002100021E030E040E050E004C0220F331F441FD3
:10022000551F6A95D2F721503040404050402A2156
:100230003B214C215D21211531054105510521F05E
:1002400021E030E040E050E059016A01A628B728DB
:10025000C828D9280BC0821593052CF01C01AA24AC
:10026000BB24650103C0EE24FF24870111969C91F5
:10027000D20111968C91981709F445C0992339F051
:10028000A80197012A193B094C095D0906C0A6017E
:1002900095012E193F09400B510B57FD08C01182E3
:1002A0003382228224833583468357831DC081E0B5
:1002B00081833382228288279927DC01821B930B5A
:1002C000A40BB50B84839583A683B7830DC0220F3F
:1002D000331F441F551F24833583468357838281F0
:1002E000938101979383828324813581468157814D
:1002F000DA01C9010197A109B1098F5F9F4FAF4F83
:10030000BF4328F30BC0918333822282EA0CFB1C8B
:100310000C1D1D1DE482F5820683178383E0808314
:10032000248135814681578157FF1AC0C901AA2708
:1003300097FDA095BA2F81709070A070B0705695FF
:10034000479537952795822B932BA42BB52B848328
:100350009583A683B7838281938101969383828359
:10036000DF0101C0D201CD01CDB7DEB7E2E10C94CF
:10037000A413A0E2B0E0EFEBF1E00C9494136983D6
:100380007A838B839C832D833E834F835887E9E058
:10039000EE2EF12CEC0EFD1ECE010196B7010E944F
:1003A000CA048E010F5E1F4FCE010596B8010E9450
:1003B000CA048A8991E089278A8BC701B801AE01F6
:1003C000475E5F4F0E946D000E94F503A096E6E035
:1003D0000C94B013A0E2B0E0E0EFF1E00C949413C1
:1003E00069837A838B839C832D833E834F835887D5
:1003F000F9E0EF2EF12CEC0EFD1ECE010196B701B7
:100400000E94CA048E010F5E1F4FCE010596B801EF
:100410000E94CA04C701B801AE01475E5F4F0E9447
:100420006D000E94F503A096E6E00C94B013A0E2E4
:10043000B0E0EDE1F2E00C94881369837A838B835A
:100440009C832D833E834F835887CE010196BE0146
:10045000675F7F4F0E94CA04CE010596BE016F5EA2
:100460007F4F0E94CA049985923088F08989823032
:10047000C8F0943019F4823051F404C0843029F467
:10048000923081F48EE690E0C6C0923049F420E0CC
:100490009A858A89981321E02A87CE010996BBC0E4
:1004A000823049F420E09A858A89981321E02A8BCA
:1004B000CE014196B0C02D843E844F8458886D880B
:1004C0007E888F88988CEE24FF248701AA24BB2481
:1004D000650140E050E060E070E0E0E0F0E0C10184
:1004E00081709070892BE9F0E60CF71C081D191D2E
:1004F0009A01AB012A0D3B1D4C1D5D1D80E090E073
:10050000A0E0B0E0E614F7040805190520F481E046
:1005100090E0A0E0B0E0BA01A901480F591F6A1F9E
:100520007B1FAA0CBB1CCC1CDD1C97FE08C081E005
:1005300090E0A0E0B0E0A82AB92ACA2ADB2A3196C6
:10054000E032F10549F0660C771C881C991C569422
:10055000479437942794C3CFFA85EA892B893C893D
:100560008B859C85280F391F2E5F3F4F17C0CA010E
:1005700081709070892B61F016950795F794E79438
:1005800080E090E0A0E0B0E8E82AF92A0A2B1B2BD3
:1005900076956795579547952F5F3F4F77FDE7CF46
:1005A0000CC0440F551F661F771F17FD4160EE0CEE
:1005B000FF1C001F111F21503040403090E05907B0
:1005C00090E0690790E4790760F32B8F3C8FDB01A3
:1005D000CA018F779070A070B07080349105A1052A
:1005E000B10561F447FD0AC0E114F10401051105EC
:1005F00029F0405C5F4F6F4F7F4F40781A8EFE1797
:1006000011F081E08A8F4D8F5E8F6F8F78A383E02A
:10061000898FCE0149960E94F503A096E2E10C94E1
:10062000A413A8E1B0E0E7E1F3E00C94941369832C
:100630007A838B839C832D833E834F83588789E005
:10064000E82EF12CEC0EFD1ECE010196B7010E94A2
:10065000CA048E010F5E1F4FCE010596B8010E949D
:10066000CA048985823040F08989823028F0C70128
:10067000B8010E94420501C08FEF6896E6E00C9435
:10068000B013A8E1B0E0E7E4F3E00C9494136983BD
:100690007A838B839C832D833E834F83588789E0A5
:1006A000E82EF12CEC0EFD1ECE010196B7010E9442
:1006B000CA048E010F5E1F4FCE010596B8010E943D
:1006C000CA048985823040F08989823028F0C701C8
:1006D000B8010E94420501C08FEF6896E6E00C94D5
:1006E000B013A8E1B0E0E7E7F3E00C94941369835A
:1006F0007A838B839C832D833E834F83588789E045
:10070000E82EF12CEC0EFD1ECE010196B7010E94E1
:10071000CA048E010F5E1F4FCE010596B8010E94DC
:10072000CA048985823040F08989823028F0C70167
:10073000B8010E94420501C081E06896E6E00C9491
:10074000B013ACE0B0E0E7EAF3E00C9498136983EF
:100750007A838B839C83CE010196BE016B5F7F4FB2
:100760000E94CA048D81823061F1823050F1843060
:1007700021F48E81882351F12EC02F81388537FDD9
:1007800020C06E812F3131051CF06623F9F023C0A3
:100790008EE190E0821B930B29853A854B855C8521
:1007A00004C056954795379527958A95D2F76623C5
:1007B000B1F050954095309521953F4F4F4F5F4F89
:1007C0000EC020E030E040E050E009C02FEF3FEFE6
:1007D0004FEF5FE704C020E030E040E050E8B901AF
:1007E000CA012C96E2E00C94B413DF92EF92FF92D0
:1007F0000F931F93FC01E480F58006811781D1805F
:100800008081823048F480E090E0A0E1B0E0E82A06
:10081000F92A0A2B1B2BA5C0843009F49FC0823013
:1008200021F4EE24FF24870105C0E114F104010541
:10083000110519F4E0E0F0E096C0628173819FEF4A
:10084000623879070CF05BC022E83FEF261B370BBC
:100850002A3131052CF020E030E040E050E02AC0A1
:10086000B801A701022E04C0769567955795479564
:100870000A94D2F781E090E0A0E0B0E004C0880FD5
:10088000991FAA1FBB1F2A95D2F70197A109B10989
:100890008E219F21A023B1230097A105B10521F04E
:1008A00081E090E0A0E0B0E09A01AB01282B392B69
:1008B0004A2B5B2BDA01C9018F779070A070B07062
:1008C00080349105A105B10539F427FF09C0205CEA
:1008D0003F4F4F4F5F4F04C0215C3F4F4F4F5F4F23
:1008E000E0E0F0E02030A0E03A07A0E04A07A0E412
:1008F0005A0710F0E1E0F0E079018A0127C0603882
:10090000710564F5FB01E158FF4FD801C7018F77EE
:100910009070A070B07080349105A105B10539F4D4
:10092000E7FE0DC080E490E0A0E0B0E004C08FE3FB
:1009300090E0A0E0B0E0E80EF91E0A1F1B1F17FFB1
:1009400005C016950795F794E794319687E01695BC
:100950000795F794E7948A95D1F705C0EE24FF2414
:100960008701EFEFF0E06E2F679566276795902F70
:100970009F77D794DD24D7948E2F8695492F462BC9
:10098000582F5D29B701CA011F910F91FF90EF9079
:10099000DF900895FC01DB01408151812281622FAB
:1009A0006F7770E0221F2227221F9381892F880FE3
:1009B000822B282F30E0991F9927991F11969C931D
:1009C000119721153105A9F54115510561057105ED
:1009D00011F482E037C082E89FEF13969C938E93C8
:1009E00012979A01AB0167E0220F331F441F551F76
:1009F0006A95D1F783E08C930DC0220F331F441FFB
:100A0000551F12968D919C911397019713969C9365
:100A10008E931297203080E0380780E0480780E40A
:100A2000580758F314962D933D934D935C93179765
:100A300008952F3F310579F4411551056105710580
:100A400019F484E08C93089564FF03C081E08C93D3
:100A500012C01C9210C02F57304013963C932E9317
:100A6000129783E08C9387E0440F551F661F771F12
:100A70008A95D1F7706414964D935D936D937C9332
:100A8000179708951F93DC01FB019C91923008F4A5
:100A900047C08081823008F443C0943051F41196ED
:100AA0001C91843099F58181682F70E0611B710978
:100AB0003FC0843021F0923031F48230B9F181812D
:100AC000882389F12DC011961C9111978230F1F085
:100AD00081811817D9F412962D913C911397828138
:100AE00093818217930794F028173907BCF0149666
:100AF0008D919D910D90BC91A02D248135814681D1
:100B00005781281739074A075B0718F4112341F06A
:100B10000AC082179307A407B50740F4112319F000
:100B200061E070E005C06FEF7FEF02C060E070E051
:100B3000CB011F910895DF93CF93CDB7DEB72D97EB
:100B40000FB6F894DEBF0FBECDBF89836A834B8397
:100B50008981282F30E03D872C878C859D858130C9
:100B6000910509F4B8C02C853D85223031052CF45F
:100B70008C859D85009771F090C22C853D85223033
:100B8000310509F449C18C859D858330910509F4AF
:100B9000E4C183C28A81282F30E03B872A878A8577
:100BA0009B858330910509F451C02A853B8524300B
:100BB00031057CF48A859B858130910571F12A8508
:100BC0003B8522303105ACF58A859B850097D1F0B5
:100BD00064C22A853B852530310509F452C08A85D7
:100BE0009B85853091050CF43FC02A853B852630D6
:100BF000310509F454C08A859B858730910509F435
:100C00005DC04BC2E0E3F0E08B818170982F917062
:100C100082858E7F892B828740C2E0E3F0E08B8162
:100C200081708170982F990F82858D7F892B8287A3
:100C300034C2E0E3F0E08B8181708170982F990FCE
:100C4000990F82858B7F892B828727C2E0E3F0E0B2
:100C50008B8181708170982F990F990F990F8285E0
:100C6000877F892B828719C2E0E3F0E08B81817056
:100C70008170982F9295907F82858F7E892B8287B5
:100C80000CC2E0E3F0E08B8181708170982F929527
:100C9000990F907E82858F7D892B8287FEC1E0E34C
:100CA000F0E08B8181708170982F9295990F990F48
:100CB000907C82858F7B892B8287EFC1E0E3F0E017
:100CC0008B818170982F97959927979582858F773B
:100CD000892B8287E2C18A81282F30E039872887D3
:100CE000888599858330910509F451C02885398517
:100CF000243031057CF4888599858130910571F126
:100D00002885398522303105ACF58885998500978D
:100D1000D1F0C3C1288539852530310509F452C089
:100D200088859985853091050CF43FC028853985E3
:100D30002630310509F454C088859985873091059E
:100D400009F45DC0AAC1E0E3F0E08B818170982FC7
:100D5000917087818E7F892B87839FC1E0E3F0E0CC
:100D60008B8181708170982F990F87818D7F892B5E
:100D7000878393C1E0E3F0E08B8181708170982FCD
:100D8000990F990F87818B7F892B878386C1E0E339
:100D9000F0E08B8181708170982F990F990F990FD6
:100DA0008781877F892B878378C1E0E3F0E08B819F
:100DB00081708170982F9295907F87818F7E892B8B
:100DC00087836BC1E0E3F0E08B8181708170982FA5
:100DD0009295990F907E87818F7D892B87835DC146
:100DE000E0E3F0E08B8181708170982F9295990FEC
:100DF000990F907C87818F7B892B87834EC1E0E39D
:100E0000F0E08B818170982F97959927979587812E
:100E10008F77892B878341C18A81282F30E03F83D8
:100E20002E838E819F818330910509F451C02E81DC
:100E30003F81243031057CF48E819F818130910582
:100E400071F12E813F8122303105ACF58E819F8179
:100E50000097D1F022C12E813F812530310509F460
:100E600052C08E819F81853091050CF43FC02E8148
:100E70003F812630310509F454C08E819F8187302F
:100E8000910509F45DC009C1E0E3F0E08B81817058
:100E9000982F917084818E7F892B8483FEC0E0E33C
:100EA000F0E08B8181708170982F990F84818D7F04
:100EB000892B8483F2C0E0E3F0E08B818170817044
:100EC000982F990F990F84818B7F892B8483E5C09C
:100ED000E0E3F0E08B8181708170982F990F990F7A
:100EE000990F8481877F892B8483D7C0E0E3F0E06A
:100EF0008B8181708170982F9295907F84818F7EF5
:100F0000892B8483CAC0E0E3F0E08B81817081701B
:100F1000982F9295990F907E84818F7D892B848361
:100F2000BCC0E0E3F0E08B8181708170982F9295D6
:100F3000990F990F907C84818F7B892B8483ADC01E
:100F4000E0E3F0E08B818170982F97959927979532
:100F500084818F77892B8483A0C08A81282F30E0F9
:100F60003D832C838C819D818330910509F451C090
:100F70002C813D81243031057CF48C819D81813030
:100F8000910571F12C813D8122303105ACF58C81C8
:100F90009D810097D1F081C02C813D8125303105A4
:100FA00009F452C08C819D81853091050CF43FC0BD
:100FB0002C813D812630310509F454C08C819D81FE
:100FC0008730910509F45DC068C0E0E3F0E08B81F3
:100FD0008170982F917081818E7F892B81835DC074
:100FE000E0E3F0E08B8181708170982F990F81810F
:100FF0008D7F892B818351C0E0E3F0E08B8181708C
:101000008170982F990F990F81818B7F892B818314
:1010100044C0E0E3F0E08B8181708170982F990FDC
:10102000990F990F8181877F892B818336C0E0E3F7
:10103000F0E08B8181708170982F9295907F8181F3
:101040008F7E892B818329C0E0E3F0E08B81817062
:101050008170982F9295990F907E81818F7D892B39
:1010600081831BC0E0E3F0E08B8181708170982F59
:101070009295990F990F907C81818F7B892B818329
:101080000CC0E0E3F0E08B818170982F9795992751
:10109000979581818F77892B81832D960FB6F89450
:1010A000DEBF0FBECDBFCF91DF910895DF93CF9309
:1010B000CDB7DEB72D970FB6F894DEBF0FBECDBF0C
:1010C00089836A834B838981282F30E03D872C8771
:1010D0008C859D858130910509F4B8C02C853D85AE
:1010E000223031052CF48C859D85009771F090C2DB
:1010F0002C853D852230310509F449C18C859D85BB
:101100008330910509F4E4C183C28A81282F30E03D
:101110003B872A878A859B858330910509F451C0D6
:101120002A853B85243031057CF48A859B85813076
:10113000910571F12A853B8522303105ACF58A8510
:101140009B850097D1F064C22A853B852530310507
:1011500009F452C08A859B85853091050CF43FC007
:101160002A853B852630310509F454C08A859B8544
:101170008730910509F45DC04BC2E0E3F0E08B815C
:101180008170982F917083858E7F892B838740C2D1
:10119000E0E3F0E08B8181708170982F990F838557
:1011A0008D7F892B838734C2E0E3F0E08B818170EF
:1011B0008170982F990F990F83858B7F892B838757
:1011C00027C2E0E3F0E08B8181708170982F990F46
:1011D000990F990F8385877F892B838719C2E0E355
:1011E000F0E08B8181708170982F9295907F83853C
:1011F0008F7E892B83870CC2E0E3F0E08B818170C6
:101200008170982F9295990F907E83858F7D892B81
:101210008387FEC1E0E3F0E08B8181708170982FBD
:101220009295990F990F907C83858F7B892B83876B
:10123000EFC1E0E3F0E08B818170982F97959927BB
:10124000979583858F77892B8387E2C18A81282FA1
:1012500030E039872887888599858330910509F49E
:1012600051C028853985243031057CF488859985DD
:101270008130910571F12885398522303105ACF531
:10128000888599850097D1F0C3C128853985253097
:10129000310509F452C088859985853091050CF493
:1012A0003FC0288539852630310509F454C088852A
:1012B00099858730910509F45DC0AAC1E0E3F0E0AB
:1012C0008B818170982F917080858E7F892B80878C
:1012D0009FC1E0E3F0E08B8181708170982F990FBE
:1012E00080858D7F892B808793C1E0E3F0E08B813F
:1012F00081708170982F990F990F80858B7F892B32
:10130000808786C1E0E3F0E08B8181708170982F47
:10131000990F990F990F8085877F892B808778C1D6
:10132000E0E3F0E08B8181708170982F9295907F3F
:1013300080858F7E892B80876BC1E0E3F0E08B8115
:1013400081708170982F9295990F907E80858F7D06
:10135000892B80875DC1E0E3F0E08B818170817033
:10136000982F9295990F990F907C80858F7B892B70
:1013700080874EC1E0E3F0E08B818170982F9795D4
:101380009927979580858F77892B808741C18A819E
:10139000282F30E03F832E838E819F8183309105FB
:1013A00009F451C02E813F81243031057CF48E81B7
:1013B0009F818130910571F12E813F81223031056D
:1013C000ACF58E819F810097D1F022C12E813F81A3
:1013D0002530310509F452C08E819F8185309105F9
:1013E0000CF43FC02E813F812630310509F454C0F2
:1013F0008E819F818730910509F45DC009C1E0E3CA
:10140000F0E08B818170982F917085818E7F892B80
:101410008583FEC0E0E3F0E08B8181708170982FBE
:10142000990F85818D7F892B8583F2C0E0E3F0E001
:101430008B8181708170982F990F990F85818B7F97
:10144000892B8583E5C0E0E3F0E08B8181708170BA
:10145000982F990F990F990F8581877F892B858305
:10146000D7C0E0E3F0E08B8181708170982F929576
:10147000907F85818F7E892B8583CAC0E0E3F0E071
:101480008B8181708170982F9295990F907E8581C4
:101490008F7D892B8583BCC0E0E3F0E08B81817078
:1014A0008170982F9295990F990F907C85818F7BF1
:1014B000892B8583ADC0E0E3F0E08B818170982FAC
:1014C00097959927979585818F77892B8583A0C0DC
:1014D0008A81282F30E03D832C838C819D8183304D
:1014E000910509F451C02C813D81243031057CF4F3
:1014F0008C819D818130910571F12C813D8122305B
:101500003105ACF58C819D810097D1F081C02C8193
:101510003D812530310509F452C08C819D81853093
:1015200091050CF43FC02C813D812630310509F432
:1015300054C08C819D818730910509F45DC068C0DD
:10154000E0E3F0E08B818170982F917082818E7F33
:10155000892B82835DC0E0E3F0E08B818170817034
:10156000982F990F82818D7F892B828351C0E0E370
:10157000F0E08B8181708170982F990F990F828193
:101580008B7F892B828344C0E0E3F0E08B81817004
:101590008170982F990F990F990F8281877F892BDE
:1015A000828336C0E0E3F0E08B8181708170982FF8
:1015B0009295907F82818F7E892B828329C0E0E380
:1015C000F0E08B8181708170982F9295990F907EB9
:1015D00082818F7D892B82831BC0E0E3F0E08B81C9
:1015E00081708170982F9295990F990F907C8281CC
:1015F0008F7B892B82830CC0E0E3F0E08B818170CC
:10160000982F97959927979582818F77892B828339
:101610002D960FB6F894DEBF0FBECDBFCF91DF91F0
:101620000895DF93CF93CDB7DEB72D970FB6F8941B
:10163000DEBF0FBECDBF8A836B838A81282F30E047
:101640003D872C878C859D858130910509F48CC060
:101650002C853D85223031052CF48C859D850097A5
:1016600071F0E0C12C853D852230310509F4F1C0CF
:101670008C859D858330910509F460C1D3C18B8130
:10168000282F30E03B872A878A859B858330910508
:1016900009F43EC02A853B85243031057CF48A85D7
:1016A0009B858130910529F12A853B8522303105C2
:1016B0003CF58A859B850097B1F0B4C12A853B85AE
:1016C00025303105B1F18A859B85853091054CF136
:1016D0002A853B8526303105A9F18A859B8587308F
:1016E0009105D1F19FC1E0E3F0E0818581708983AC
:1016F00099C1E0E3F0E0818586958170898392C18C
:10170000E0E3F0E0818586958695817089838AC1C2
:10171000E0E3F0E0818586958695869581708983E2
:1017200081C1E0E3F0E0818582958F7081708983CB
:1017300079C1E0E3F0E081858295869587708170BC
:10174000898370C1E0E3F0E0818582958695869576
:1017500083708170898366C1E0E3F0E08185881F32
:101760008827881F89835EC18B81282F30E03987C5
:101770002887888599858330910509F43EC028859E
:101780003985243031057CF488859985813091052F
:1017900029F128853985223031053CF588859985E0
:1017A0000097B1F03FC12885398525303105B1F169
:1017B00088859985853091054CF1288539852630B5
:1017C0003105A9F18885998587309105D1F12AC124
:1017D000E0E3F0E086818170898324C1E0E3F0E0FA
:1017E00086818695817089831DC1E0E3F0E0868162
:1017F000869586958170898315C1E0E3F0E0868146
:10180000869586958695817089830CC1E0E3F0E02A
:10181000868182958F708170898304C1E0E3F0E056
:10182000868182958695877081708983FBC0E0E30D
:10183000F0E0868182958695869583708170898394
:10184000F1C0E0E3F0E08681881F8827881F898344
:10185000E9C08B81282F30E03F832E838E819F81CA
:101860008330910509F43EC02E813F81243031053B
:101870007CF48E819F818130910529F12E813F81F9
:10188000223031053CF58E819F810097B1F0CAC0AE
:101890002E813F8125303105B1F18E819F818530C8
:1018A00091054CF12E813F8126303105A9F18E81C1
:1018B0009F8187309105D1F1B5C0E0E3F0E08381ED
:1018C00081708983AFC0E0E3F0E083818695817009
:1018D0008983A8C0E0E3F0E08381869586958170D6
:1018E0008983A0C0E0E3F0E08381869586958695A4
:1018F0008170898397C0E0E3F0E0838182958F70E7
:10190000817089838FC0E0E3F0E0838182958695C2
:1019100087708170898386C0E0E3F0E083818295DF
:10192000869586958370817089837CC0E0E3F0E0C2
:101930008381881F8827881F898374C08B81282F03
:1019400030E03D832C838C819D818330910509F4A7
:101950003EC02C813D81243031057CF48C819D81F9
:101960008130910529F12C813D81223031053CF5F2
:101970008C819D810097B1F055C02C813D8125302F
:101980003105B1F18C819D81853091054CF12C811F
:101990003D8126303105A9F18C819D8187309105EB
:1019A000D1F140C0E0E3F0E08081817089833AC0EA
:1019B000E0E3F0E0808186958170898333C0E0E3C5
:1019C000F0E0808186958695817089832BC0E0E365
:1019D000F0E080818695869586958170898322C006
:1019E000E0E3F0E0808182958F70817089831AC076
:1019F000E0E3F0E08081829586958770817089832D
:101A000011C0E0E3F0E08081829586958695837031
:101A10008170898307C0E0E3F0E08081881F882718
:101A2000881F898389812D960FB6F894DEBF0FBE7B
:101A3000CDBFCF91DF910895DF93CF9300D000D039
:101A4000CDB7DEB789836A838981282F30E03C8354
:101A50002B838B819C818130910521F12B813C81ED
:101A6000223031052CF48B819C81009761F046C0B7
:101A70002B813C812230310521F18B819C81833087
:101A8000910571F13BC08A81882321F4E0E3F0E005
:101A9000128634C08A81813089F5E0E3F0E08FEF6F
:101AA00082872CC08A81882321F4E0E3F0E017824A
:101AB00025C08A81813011F5E0E3F0E08FEF878364
:101AC0001DC08A81882321F4E0E3F0E0148216C06F
:101AD0008A81813099F4E0E3F0E08FEF84830EC0D7
:101AE0008A81882321F4E0E3F0E0118207C08A8133
:101AF000813021F4E0E3F0E08FEF81830F900F90CD
:101B00000F900F90CF91DF910895DF93CF9300D086
:101B100000D0CDB7DEB789836A838981282F30E072
:101B20003C832B838B819C818130910521F12B811A
:101B30003C81223031052CF48B819C81009761F02F
:101B400046C02B813C812230310521F18B819C8163
:101B50008330910571F13BC08A81813029F4E0E343
:101B6000F0E08FEF838733C08A81882381F5E0E33B
:101B7000F0E013862CC08A81813029F4E0E3F0E0A4
:101B80008FEF808724C08A81882309F5E0E3F0E0A5
:101B900010861DC08A81813029F4E0E3F0E08FEFE8
:101BA000858315C08A81882391F4E0E3F0E01582F3
:101BB0000EC08A81813029F4E0E3F0E08FEF828368
:101BC00006C08A81882319F4E0E3F0E012820F90C6
:101BD0000F900F900F90CF91DF910895DF93CF93E7
:101BE00000D000D0CDB7DEB78A838A81282F30E0BD
:101BF0003C832B838B819C8181309105D1F02B819B
:101C00003C81223031052CF48B819C81009761F05E
:101C10001EC02B813C812230310581F08B819C815B
:101C20008330910581F013C0E0E3F0E08185898382
:101C30000EC0E0E3F0E08681898309C0E0E3F0E0D4
:101C40008381898304C0E0E3F0E080818983898116
:101C50000F900F900F900F90CF91DF910895DF9329
:101C6000CF93CDB7DEB76E970FB6F894DEBF0FBE39
:101C7000CDBF1E8E17C08E8D882F90E0FC01EA58D4
:101C8000FF4F20818E8D882F90E00196FC01EA584D
:101C9000FF4F9081822F692F41E00E949B058E8D1E
:101CA0008E5F8E8F8E8D863030F38EE08D8F17C0D5
:101CB0008D8D882F90E0FC01EA58FF4F20818D8D9B
:101CC000882F90E00196FC01EA58FF4F9081822F07
:101CD000692F41E00E949B058D8D8E5F8D8F8D8DCC
:101CE000863130F380E090E0A8E4B2E4898F9A8FE7
:101CF000AB8FBC8F698D7A8D8B8D9C8D20E030E011
:101D00004AE755E40E941702DC01CB018D8B9E8BC4
:101D1000AF8BB88F6D897E898F89988D20E030E0F8
:101D200040E85FE30E94710388232CF481E090E097
:101D30009C8B8B8B3FC06D897E898F89988D20E02D
:101D40003FEF4FE757E40E94110318164CF5698DD9
:101D50007A8D8B8D9C8D20E030E040E251E40E9432
:101D60001702DC01CB01BC01CD010E944100DC0166
:101D7000CB019C8B8B8B0FC080E991E09A8B898B78
:101D800089899A890197F1F79A8B898B8B899C892C
:101D900001979C8B8B8B8B899C89009769F714C06A
:101DA0006D897E898F89988D0E944100DC01CB016D
:101DB0009C8B8B8B8B899C89988B8F878F8598893F
:101DC0000197F1F7988B8F8783E30E94830F82E35B
:101DD0000E94830F83E20E94830F8CE00E94830F96
:101DE00081E00E94830F80E090E0A0E8BFE38B8752
:101DF0009C87AD87BE876B857C858D859E8520E021
:101E000030E04AE755E40E941702DC01CB018F83E2
:101E10009887A987BA876F81788589859A8520E018
:101E200030E040E85FE30E94710388232CF481E0F6
:101E300090E09E838D833FC06F81788589859A85E8
:101E400020E03FEF4FE757E40E94110318164CF5CE
:101E50006B857C858D859E8520E030E040E251E4F5
:101E60000E941702DC01CB01BC01CD010E944100A0
:101E7000DC01CB019E838D830FC080E991E09C83C0
:101E80008B838B819C810197F1F79C838B838D8160
:101E90009E8101979E838D838D819E81009769F736
:101EA00014C06F81788589859A850E944100DC0184
:101EB000CB019E838D838D819E819A8389838981C5
:101EC0009A810197F1F79A83898386E00E94830FB4
:101ED0006E960FB6F894DEBF0FBECDBFCF91DF91E7
:101EE0000895DF93CF930F92CDB7DEB7898380E05B
:101EF00063E041E00E94560889810E94D2100F9051
:101F0000CF91DF910895DF93CF930F92CDB7DEB7D6
:101F1000898380E063E040E00E94560889810E9446
:101F2000D2100F90CF91DF910895DF93CF93CDB76B
:101F3000DEB762970FB6F894DEBF0FBECDBF9A8BA7
:101F4000898B188A1F8691C08889282F30E089895B
:101F50009A89FC01E20FF31F80810E94710F88892A
:101F60008F5F888B888994E1692F0E947C13892F69
:101F7000882309F07AC09F858F858F5F8F87892F8F
:101F800060E00E944A1080E090E0A0E8BFE38B8709
:101F90009C87AD87BE876B857C858D859E8520E07F
:101FA00030E04AE755E40E941702DC01CB018F8341
:101FB0009887A987BA876F81788589859A8520E077
:101FC00030E040E85FE30E94710388232CF481E055
:101FD00090E09E838D833FC06F81788589859A8547
:101FE00020E03FEF4FE757E40E94110318164CF52D
:101FF0006B857C858D859E8520E030E040E251E454
:102000000E941702DC01CB01BC01CD010E944100FE
:10201000DC01CB019E838D830FC080E991E09C831E
:102020008B838B819C810197F1F79C838B838D81BE
:102030009E8101979E838D838D819E81009769F794
:1020400014C06F81788589859A850E944100DC01E2
:10205000CB019E838D838D819E819A838983898123
:102060009A810197F1F79A8389838889282F30E034
:1020700089899A89FC01E20FF31F8081882309F086
:1020800063CF62960FB6F894DEBF0FBECDBFCF917F
:10209000DF910895DF93CF9300D000D000D0CDB76B
:1020A000DEB78D836E83198280E48A8384E18B831B
:1020B00084E58C838D81282F30E0CE010196FC01D0
:1020C000E20FF31F90818E81890F80680E94830F39
:1020D00026960FB6F894DEBF0FBECDBFCF91DF912D
:1020E0000895DF93CF93CDB7DEB768970FB6F89416
:1020F000DEBF0FBECDBF6D8B7E8B8F8B988F8D8992
:102100009E899E012F5F3F4FB9014AE050E00E9437
:10211000BF13CE0101960E94950F68960FB6F894F2
:10212000DEBF0FBECDBFCF91DF910895DF93CF9378
:1021300000D000D0CDB7DEB79B838A836C838C81BF
:10214000882F90E0880F991F880F991F880F991F7B
:1021500080640E94830F19820EC08981282F30E08D
:102160008A819B81FC01E20FF31F80810E94710F25
:1021700089818F5F89838981883078F30F900F90F0
:102180000F900F90CF91DF910895DF93CF930F922F
:10219000CDB7DEB7898389810E94710F0F90CF91EF
:1021A000DF910895DF93CF93CDB7DEB7C754D0400A
:1021B0000FB6F894DEBF0FBECDBF8BAF80E062E0FC
:1021C00040E00E94560884E18AAF52C08AAD882F51
:1021D00090E0FC01EA58FF4F208124962FAF24970E
:1021E0008AAD882F90E00196FC01EA58FF4F3081BC
:1021F00023963FAF23978BAD282F30E022963FAF39
:102200002EAF22978AAD882F90E0069726969FAF33
:102210008EAF269726968EAD9FAD2697992354F4C0
:1022200026962EAD3FAD26972F5F3F4F26963FAFA8
:102230002EAF269726968EAD9FAD269795958795BE
:1022400022962EAD3FAD229702C0359527958A95EF
:10225000E2F7C901982F917024968FAD24972396A9
:102260006FAD2397492F0E9456088AAD82508AAFDE
:102270008AAD8D3008F0AACF80E062E041E00E9494
:10228000560880E090E0A0E8BFE38DAB9EABAFAB1B
:10229000B8AF6DA97EA98FA998AD20E030E04AE7DC
:1022A00055E40E941702DC01CB0189AB9AABABABC2
:1022B000BCAB69A97AA98BA99CA920E030E040E8D1
:1022C0005FE30E94710388232CF481E090E098ABD7
:1022D0008FA73FC069A97AA98BA99CA920E03FEFED
:1022E0004FE757E40E94110318164CF56DA97EA91B
:1022F0008FA998AD20E030E040E251E40E9417023F
:10230000DC01CB01BC01CD010E944100DC01CB010D
:1023100098AB8FA70FC080E991E09EA78DA78DA5F0
:102320009EA50197F1F79EA78DA78FA598A9019764
:1023300098AB8FA78FA598A9009769F714C069A9D2
:102340007AA98BA99CA90E944100DC01CB0198AB22
:102350008FA78FA598A99CA78BA78BA59CA5019754
:10236000F1F79CA78BA780E062E040E00E9456084E
:1023700080E090E0A0EAB0E48FA398A7A9A7BAA74D
:102380006FA178A589A59AA520E030E04AE755E439
:102390000E941702DC01CB018BA39CA3ADA3BEA3BB
:1023A0006BA17CA18DA19EA120E030E040E85FE31D
:1023B0000E94710388232CF481E090E09AA389A302
:1023C0003FC06BA17CA18DA19EA120E03FEF4FE714
:1023D00057E40E94110318164CF56FA178A589A542
:1023E0009AA520E030E040E251E40E941702DC01AF
:1023F000CB01BC01CD010E944100DC01CB019AA3BD
:1024000089A30FC080E991E098A38F8F8F8D98A149
:102410000197F1F798A38F8F89A19AA101979AA3A9
:1024200089A389A19AA1009769F714C06BA17CA127
:102430008DA19EA10E944100DC01CB019AA389A33A
:1024400089A19AA19E8F8D8F8D8D9E8D0197F1F719
:102450009E8F8D8F84E189AF46C089AD882F90E033
:10246000FC01EA58FF4F30813FAF89AD882F90E0E3
:102470000196FC01EA58FF4F80818EAF8BAD282F6B
:1024800030E03DAF2CAF89AD882F90E00E972896B5
:102490009FAF8EAF289728968EAD9FAD2897992332
:1024A00054F428962EAD3FAD28972F5F3F4F2896C6
:1024B0003FAF2EAF289728968EAD9FAD2897959564
:1024C00087952CAD3DAD02C0359527958A95E2F7ED
:1024D000C901982F91708FAD6EAD492F0E9456089B
:1024E00089AD825089AF89AD8D3008F0B6CF80E0DC
:1024F00062E041E00E94560880E090E0A0E8BFE37F
:10250000898F9A8FAB8FBC8F698D7A8D8B8D9C8DC7
:1025100020E030E04AE755E40E941702DC01CB01DD
:102520008D8B9E8BAF8BB88F6D897E898F89988DAF
:1025300020E030E040E85FE30E94710388232CF440
:1025400081E090E09C8B8B8B3FC06D897E898F8969
:10255000988D20E03FEF4FE757E40E9411031816D3
:102560004CF5698D7A8D8B8D9C8D20E030E040E2BA
:1025700051E40E941702DC01CB01BC01CD010E9495
:102580004100DC01CB019C8B8B8B0FC080E991E07B
:102590009A8B898B89899A890197F1F79A8B898B14
:1025A0008B899C8901979C8B8B8B8B899C8900974D
:1025B00069F714C06D897E898F89988D0E944100CA
:1025C000DC01CB019C8B8B8B8B899C89988B8F87B3
:1025D0008F8598890197F1F7988B8F8780E062E06B
:1025E00040E00E94560880E090E0A0EAB0E48B87CB
:1025F0009C87AD87BE876B857C858D859E8520E019
:1026000030E04AE755E40E941702DC01CB018F83DA
:102610009887A987BA876F81788589859A8520E010
:1026200030E040E85FE30E94710388232CF481E0EE
:1026300090E09E838D833FC06F81788589859A85E0
:1026400020E03FEF4FE757E40E94110318164CF5C6
:102650006B857C858D859E8520E030E040E251E4ED
:102660000E941702DC01CB01BC01CD010E94410098
:10267000DC01CB019E838D830FC080E991E09C83B8
:102680008B838B819C810197F1F79C838B838D8158
:102690009E8101979E838D838D819E81009769F72E
:1026A00014C06F81788589859A850E944100DC017C
:1026B000CB019E838D838D819E819A8389838981BD
:1026C0009A810197F1F79A838983C95BDF4F0FB62F
:1026D000F894DEBF0FBECDBFCF91DF910895DF9399
:1026E000CF93CDB7DEB70E942F0E80918C009091D2
:1026F0008D000E94950FFFCF991B79E004C0991FB0
:10270000961708F0961B881F7A95C9F7809508954B
:102710002F923F924F925F926F927F928F929F92F1
:10272000AF92BF92CF92DF92EF92FF920F931F93DF
:10273000CF93DF93CDB7DEB7CA1BDB0B0FB6F89490
:10274000DEBF0FBECDBF09942A88398848885F84D0
:102750006E847D848C849B84AA84B984C884DF8041
:10276000EE80FD800C811B81AA81B981CE0FD11D25
:102770000FB6F894DEBF0FBECDBFED010895FB018B
:102780009F01E8944230C4F04532B4F44A3029F451
:1027900097FB1EF4909581959F4F642F77270E9499
:1027A000F013805D8A330CF0895D8193CB01009733
:1027B000A1F716F45DE251931082C9010C94E01365
:1027C000DC01FC01672F71917723E1F7329704C098
:1027D0007C916D9370836291AE17BF07C8F3089523
:1027E000AA1BBB1B51E107C0AA1FBB1FA617B70737
:1027F00010F0A61BB70B881F991F5A95A9F7809553
:0C2800009095BC01CD010895F894FFCF25
:10280C0048454C4C4F204D4F48414D45440000002D
:10281C000000000000000003000100020107010697
:0E282C00010501030100010101020104600029
:00000001FF
